:020000040800F2
:1000000098150020AD3400080D0500080F05000804
:1000100013050008170500081B0500080000000074
:100020000000000000000000000000001F050008A4
:100030002105000800000000230500082505000830
:10004000C7340008C7340008C7340008C7340008A4
:10005000C7340008C7340008C7340008C734000894
:10006000C7340008C7340008C7340008C734000884
:10007000C7340008C7340008C7340008C734000874
:10008000C7340008C7340008C7340008C734000864
:10009000C7340008C7340008C7340008C734000854
:1000A000C7340008C7340008C7340008C734000844
:1000B000C7340008270500089F0D0008C734000852
:1000C000C7340008C7340008C7340008C734000824
:1000D000C7340008FB230008C7340008C7340008F1
:1000E000C7340008C7340008C7340008C734000804
:1000F000C7340008C7340008C7340008C7340008F4
:10010000C7340008C7340008C7340008C7340008E3
:10011000C7340008C734000803200008C7340008AB
:10012000C7340008C7340008C7340008C7340008C3
:10013000C7340008C7340008C7340008C7340008B3
:10014000C7340008C7340008C7340008C7340008A3
:10015000B1230008C7340008C7340008C7340008BA
:10016000C7340008C7340008C7340008C734000883
:10017000C7340008C7340008C7340008C734000873
:10018000C7340008C734000800F002F800F0B2F8E5
:100190000AA090E8000C82448344AAF10107DA45E2
:1001A00001D100F0A7F8AFF2090EBAE80F0013F082
:1001B000010F18BFFB1A43F00103184778880000AD
:1001C000988800000A444FF0000C10F8013B13F02F
:1001D000070408BF10F8014B1D1108BF10F8015BA0
:1001E000641E05D010F8016B641E01F8016BF9D193
:1001F00013F0080F1EBF10F8014BAD1C0C1B09D1EA
:100200006D1E58BF01F801CBFAD505E014F8016B5B
:1002100001F8016B6D1EF9D59142D6D370470000ED
:100220000023002400250026103A28BF78C1FBD8FF
:10023000520728BF30C148BF0B6070476E2905F0D8
:100240004685702905F08986662908F0F8826529B7
:1002500008F0F582672908F0F282612908F0F1823E
:1002600003681B0A28BF41F08001692905F06683F5
:10027000642905F06383752905F060836F2905F013
:100280001686782905F05586E92905F0B185E42917
:1002900005F0AE85F52905F0AB85EF2905F013864D
:1002A000F82905F054860368DB0928BF41F0800176
:1002B000632906F03B82732906F04082E32906F0A9
:1002C0004B82F32906F05082002070471FB508F0DA
:1002D000ACFA06F09FFA04000020002107F0DCFCD5
:1002E000401C60600020002107F0C0FCE0601FBDE2
:1002F00010B510BD06F060FA1146FFF7E7FF00F0F9
:100300001EF806F039FB03B4FFF7F2FF03BC06F05A
:100310007DFB00001CB50121102003F0D7FE10204A
:10032000009000208DF8040003208DF805000120C6
:100330008DF8070069466D4803F02AFC1CBD9EB08D
:1003400041F638042546B3EE0E0A8DED1C0AB1EED7
:10035000000A8DED1D0A00201B90B3EE0E0A8DEDF4
:10036000190AB1EE000A8DED1A0A1890B3EE040ACC
:100370008DED160AB1EE000A8DED170A1590B3EE59
:100380000E0A8DED130AB1EE000A8DED140A1290DB
:100390009FED570A8DED0C0A9FED560A8DED0D0A63
:1003A00001F0BBFE00F0F2F94FF40071524803F087
:1003B0006BFC4FF48061504803F066FC0026002778
:1003C00000F066FA00F0FEF9FFF7A4FF00F0FDFB75
:1003D00000F049FC00F094FC00F08CFB01F0D6FD2D
:1003E0004FF6FF7300221946104600F0E1FF01208E
:1003F00000F061FD8046424640A101A805F088FA60
:1004000001AA0021084601F0DBF901AA02210846F1
:1004100001F0D6F901F0D0FA00BF01F035FF01F08C
:100420009BFF02F0F8F806A802F0B4FA02F02CFBE9
:1004300006A802F0FAFA57E031480068864201D077
:100440002F480668F01B14284EDD2D48D0F8008098
:1004500037462C4812AB15AA18A900901BA801F02A
:1004600065FE06A802F06AF99DED0B3AF0EE432A0C
:100470009DED0A3AB0EE432A9DED093AF0EE431A9B
:100480009DED083AB0EE431A9DED073AF0EE430AAF
:100490009DED063AB0EE430A02F0A0FB02F090FD9B
:1004A0001948D0ED000A00EE104AB8EEC00AB1EECD
:1004B000081A00EE810ABDEEC00A10EE104AD0ED17
:1004C000010A00EE105AB8EEC00AB1EE081A00EEAA
:1004D000C10ABDEEC00A10EE105AA9B2A0B202F0D5
:1004E00034FB01F069FA00BFA6E7000000100240EB
:1004F0000AE81C3BFDB38B39001402402564000060
:1005000038060020E80E0020200F0020704700BFB2
:10051000FEE700BFFEE700BFFEE700BFFEE7704753
:1005200070477047704710B50121124804F0C7FEAC
:10053000F8B101210F4804F0D3FE4FF400710E48CA
:1005400003F095FBC0F10100C4B222464FF40071E4
:10055000094803F09DFB4FF48061074803F087FBD7
:10056000C0F10100C4B222464FF48061024803F09A
:100570008FFB10BD00040040001402400CB50020A9
:10058000019000907648006840F48030744908601B
:1005900000BF7348006800F4003000900198401CD0
:1005A0000190009818B90198B0F5A04FF1D16C48AE
:1005B000006800F4003010B10120009001E000203C
:1005C00000900098012846D165484030006840F00E
:1005D00080506349403108606248006840F4404000
:1005E000604908605E48083000685D49083108606D
:1005F0000846006840F4004008600846006840F47F
:10060000A05008605848091F0860081F006840F0A3
:100610008070091F086000BF5148006800F000703A
:100620000028F9D040F20570504908604C48083065
:10063000006820F003004A49083108600846006855
:1006400040F00200086000BF45480830006800F034
:100650000C000828F8D10CBD10B54548006840F4DE
:100660007000434908603E48006840F001003C4982
:10067000086000203A4908310860394800683D495F
:100680000840374908603C48091D0860081F006899
:1006900020F48020091F0860002031490C310860D7
:1006A000FFF76CFF4FF0006031498039086010BDE2
:1006B00070B500200022022300240221284D0835B5
:1006C0002D6805F00C0020B1042806D0082834D18C
:1006D00007E02A4D2A4E356033E02A4D284E35601A
:1006E0002FE01F4D2D1D2D68C5F380541C4D2D1D71
:1006F0002D6805F03F0154B1224DB5FBF1F5184EC0
:10070000361D3668C6F3881605FB06F209E01B4D58
:10071000B5FBF1F5124E361D3668C6F3881605FB9B
:1007200006F20F4D2D1D2D68C5F301456D1C6B00A4
:10073000B2FBF3F5124E356003E0104D104E3560FC
:1007400000BF00BF064D08352D68C5F303150E4EDA
:10075000705D0B4D2D68C540094E356070BD0000C1
:10076000003802400070004008544007003C02403E
:1007700088ED00E0FFFFF6FE103000240024F400B6
:100780000000002000127A00040000201CB50121A6
:10079000202003F09BFC4FF4C060009001208DF8F6
:1007A000040000208DF8060003208DF805000120CC
:1007B0008DF807006946024803F0EAF91CBD000005
:1007C000001402401CB50121022003F07FFC4FF40D
:1007D0007C70009001208DF8040000208DF8060048
:1007E0008DF8050001208DF807006946B94803F02F
:1007F000CFF90121402003F069FC4FF4FC40009048
:1008000001208DF8040000208DF806008DF8050009
:1008100001208DF807006946AF4803F0B9F94FF49D
:100820000061AD4803F032FA4FF48051AA4803F05A
:100830002BFA4FF40051A84803F026FA4FF4007148
:10084000A44803F023FA4FF40071A34803F01CFA04
:100850004FF48061A04803F017FA4FF480419E489E
:1008600003F014FA10219B4803F00EFA4FF4807144
:10087000984803F009FA2021964803F007FA40212E
:10088000944803F001FA8021924803F0FDF91CBD61
:1008900000B585B00121042003F018FC01210220DD
:1008A00003F014FC022206218C4803F0FCF902221A
:1008B00007218A4803F0F7F902220821874803F04C
:1008C000F2F902220121834803F0EDF94FF4E070C0
:1008D000039002208DF810008DF8110000208DF893
:1008E000120001208DF8130003A97C4803F050F991
:1008F0000220039003A9774803F04AF9012102205E
:1009000003F02DFC0320ADF800000020ADF802003C
:1009100045F2072001900020ADF8080069467048B4
:1009200004F015F860206F490880012048800020FD
:10093000886088816A4804F09FF80821684804F0BC
:1009400028FA6020684908800120488000208860DB
:100950008881634804F0C9F80821614804F022FA4C
:1009600060206249088001204880002088608881DA
:100970005B4804F007F90821594804F020FA602088
:100980005B490880012048800020886088815448A5
:1009900004F05EF90821524804F01AFA0121504887
:1009A00004F040F801214E4804F05AF805B000BDAB
:1009B0002DE9F0412DED028B07460C4615461E46EB
:1009C000002F0ADB4FF40061434803F05FF94FF456
:1009D0008051414803F058F909E04FF480513E48F6
:1009E00003F054F94FF400613B4803F04DF9002C3B
:1009F0000ADB4FF40071374803F048F94FF40071F7
:100A0000354803F041F909E04FF40071324803F032
:100A10003DF94FF400712F4803F036F9002D09DB42
:100A20004FF480412C4803F031F91021294803F09C
:100A30002BF908E01021274803F028F94FF48041F2
:100A4000254803F021F9002E08DB2021214803F07E
:100A50001DF940211F4803F017F907E040211D4808
:100A600003F014F920211B4803F00EF9384607F073
:100A700094FB21F0004107F063FB1A498860184895
:100A800003F0FAFF204607F088FB21F0004107F051
:100A900057FB15498860124804F027F8284607F0EC
:100AA0007CFB21F0004107F04BFB104988600C48AB
:100AB00004F068F8304607F070FB21F0004107F0C1
:100AC0003FFB0B498860064804F0C2F8BDEC028B7E
:100AD000BDE8F08100040240001802400008024016
:100AE00000040040880600209C060020B00600207C
:100AF000C406002000B585B0F648F749C86001215A
:100B0000084603F02CFB0121022003F0DFFA01214B
:100B1000084603F0DBFA01220F21F04803F0C3F886
:100B200001220321EE4803F0BEF803A803F078F891
:100B300002208DF8100001208DF8120003208DF89E
:100B400011004FF40040039001208DF8130003A919
:100B5000E24803F01DF803A803F062F802208DF8C4
:100B6000100001208DF8120003208DF811000820DC
:100B7000039001208DF8130003A9D94803F008F869
:100B80000020ADF800004FF6FF7001900020ADF896
:100B90000800ADF8020069464FF0804003F0D7FE30
:100BA00000231A4603214FF0804004F044FC00214A
:100BB0004FF0804003F014FF0121880703F050FF3D
:100BC0000020C449086005B000BD00B585B0C54827
:100BD000C14908600121042003F0C1FA0121082065
:100BE00003F074FA02220C21BF4803F05CF80222E1
:100BF0000D21BD4803F057F803A803F011F80220B7
:100C00008DF8100001208DF8120003208DF81100DE
:100C10000003039001208DF8130003A9B24802F0ED
:100C2000B7FF0020ADF800004FF6FF7001900020E4
:100C3000ADF80800ADF802006946AC4803F087FE45
:100C400000231A460321A94804F0F5FB0021A74818
:100C500003F0C6FE0121A54803F002FF0020A149D0
:100C6000086005B000BD00B585B0A1489A4948604C
:100C70000121082003F073FA0121084603F026FA47
:100C800002220021954803F00EF802220121934828
:100C900003F009F803A802F0C3FF02208DF810004A
:100CA00001208DF8120003208DF81100039001201F
:100CB0008DF8130003A9894802F06AFF0020ADF8FF
:100CC00000004FF6FF7001900020ADF80800ADF86D
:100CD00002006946874803F03AFE00208449086014
:100CE00000231A460321834804F0A5FB0021814814
:100CF00003F076FE01217F4803F0B2FE05B000BD8F
:100D000000B585B07C48744988600121084603F02D
:100D100037FA0121102003F0D9F90122092177487F
:100D200002F0C1FF01220B21744802F0BCFF03A8AE
:100D300002F076FF02208DF8100001208DF81200DD
:100D400003208DF811004FF42060039001208DF8EE
:100D5000130003A9694802F01BFF0020ADF8000052
:100D60004FF6FF7001900020ADF80800ADF80200CA
:100D70006946634803F0EBFD00231A4603216048EF
:100D800004F059FB00215E4803F02AFE01215C4873
:100D900003F066FE00205849086005B000BD70B53C
:100DA0004FF4807002F05AFE30B34FF480514E4839
:100DB00002F050FF04464FF400514B4802F04AFF46
:100DC000054650480078684020B146480068401CFD
:100DD000444908604C480078604020B141480068B0
:100DE000401E4049086047480470474805704FF46A
:100DF000807002F03EFE2BE04FF4007002F02EFEF9
:100E000030B34FF48051384802F024FF04464FF4C9
:100E10000051354802F01EFF05463A480078684008
:100E200020B130480068401C2E49086036480078E0
:100E3000604020B12B480068401E2A4908603148B4
:100E40000470314805704FF4007002F012FE00BFCC
:100E500070BD10B5274803F0C7FD04B224480460F4
:100E60000021244803F0BCFD10BD10B51F4803F05D
:100E7000BBFD04B21B48046000211C4803F0B0FD18
:100E800010BD10B51E4803F0AFFD04B21A4804604F
:100E900000211B4803F0A4FD10BD10B54FF08040A9
:100EA00003F0A2FD04B20B48046000214FF0804023
:100EB00003F096FD10BD014611B90A48006870475D
:100EC000012902D10A480068F9E702291ED10A481F
:100ED0000068F4E720000020D8060020000002404F
:100EE0000004024018000020000C024000080040EE
:100EF00014000020000C00401C00002000100240E4
:100F0000000001402400002025000020084800685F
:100F1000D5E710B504461CB900200649086006E074
:100F20000020054908600021044803F059FD10BD68
:100F3000200000201800002014000020000C0040B9
:100F4000F9480078704700B587B00121084603F0E2
:100F5000BDF80121080303F013F90121080303F090
:100F6000B9F905221146F14802F09DFE052207213C
:100F7000EE4802F098FE4020009000208DF8060018
:100F800001208DF8040000208DF8070001208DF865
:100F900005006946E54802F0FBFD102000900020A6
:100FA0008DF8060001208DF8040000208DF8070060
:100FB00001208DF805006946DD4802F0E9FDA0201A
:100FC000009000208DF8060002208DF8040000201B
:100FD0008DF8070002208DF805006946D34802F01D
:100FE000D7FD1020009000208DF8060001208DF81C
:100FF000040000208DF8070002208DF805006946E6
:10100000CA4802F0C5FD0020ADF808004FF4827018
:10101000ADF80A000020ADF80C000220ADF80E007B
:101020000120ADF810004002ADF812000820ADF824
:1010300014000020ADF8160002A9BE4803F0E6F93E
:101040000121BC4803F0DCFA0021BA4803F05BFB45
:101050000021B84803F012FB07B000BD10B50446EC
:101060001021B24802F012FE1021B14802F00EFE2B
:1010700000BF0221AF4803F08DFB0028F9D02146C4
:10108000AC4803F03EFB00BF0121AA4803F082FBFD
:101090000028F9D0A74803F031FB1021A34802F043
:1010A000F3FD10BD10B504461021A04802F0EEFD7E
:1010B00010219F4802F0E8FD00BF02219D4803F087
:1010C00069FB0028F9D021469A4803F01AFB00BFBB
:1010D0000121984803F05EFB0028F9D0954803F001
:1010E0000DFB1021914802F0CFFD10BD10B501207D
:1010F000FFF7B4FF0A2000F0A1FF1120FFF7AEFFB9
:10110000782000F09BFFB120FFF7A8FF0120FFF738
:10111000C9FF2C20FFF7C6FF2D20FFF7C3FFB22029
:10112000FFF79CFF0120FFF7BDFF2C20FFF7BAFF60
:101130002D20FFF7B7FFB320FFF790FF0120FFF747
:10114000B1FF2C20FFF7AEFF2D20FFF7ABFF0120F2
:10115000FFF7A8FF2C20FFF7A5FF2D20FFF7A2FF28
:10116000B420FFF77BFF0720FFF79CFFC020FFF7AD
:1011700075FFA220FFF796FF0220FFF793FF842060
:10118000FFF790FFC120FFF769FFC520FFF78AFF37
:10119000C220FFF763FF0A20FFF784FF0020FFF75C
:1011A00081FFC320FFF75AFF8A20FFF77BFF2A2029
:1011B000FFF778FFC420FFF751FF8A20FFF772FF87
:1011C000EE20FFF76FFFC520FFF748FF0E20FFF767
:1011D00069FF3620FFF742FFC820FFF763FFE020DA
:1011E000FFF73CFF0220FFF75DFF1C20FFF75AFFCF
:1011F0000720FFF757FF1220FFF754FF3720FFF7B4
:1012000051FF3220FFF74EFF2920FFF74BFF2D2023
:10121000FFF748FF2920FFF745FF2520FFF742FF92
:101220002B20FFF73FFF3920FFF73CFF0020FFF79F
:1012300039FF0120FFF736FF0320FFF733FF1020AF
:10124000FFF730FFE120FFF709FF0320FFF72AFF38
:101250001D20FFF727FF0720FFF724FF0620FFF7D9
:1012600021FF2E20FFF71EFF2C20FFF71BFF292058
:10127000FFF718FF2D20FFF715FF2E20FFF712FFB5
:101280002E20FFF70FFF3720FFF70CFF3F20FFF75F
:1012900009FF0020FFF706FF0020FFF703FF0220F1
:1012A000FFF700FF1020FFF7FDFE2A20FFF7D6FE14
:1012B0000020FFF7F7FE0020FFF7F4FE0020FFF705
:1012C000F1FE7F20FFF7EEFE2B20FFF7C7FE002088
:1012D000FFF7E8FE0020FFF7E5FE0020FFF7E2FE43
:1012E0009F20FFF7DFFE3A20FFF7B8FE0520FFF74B
:1012F000D9FE2920FFF7B2FE0A2000F09FFE10BDA4
:1013000010B500200C4908704021084802F0BEFCCE
:10131000642000F093FE4021044802F0B5FC6420F4
:1013200000F08CFE10BD00002C06002000000240E2
:1013300000080240003001403006002070B504462D
:101340002A20FFF78BFE0020FFF7ACFE0220FFF7FC
:10135000A9FE0020FFF7A6FE8120FFF7A3FE2B20A9
:10136000FFF77CFE0020FFF79DFE0120FFF79AFEAD
:101370000020FFF797FEA020FFF794FE2C20FFF738
:101380006DFE002507E02012FFF78CFEE0B2FFF7AC
:1013900089FE681C85B2B5F5A04FF4DB70BDF94934
:1013A00008807047F84908807047F84908807047FE
:1013B0002DE9F04704460F46904699460020F4492F
:1013C0000870F4490870FFF7BEFDFFF799FFFFF7BB
:1013D0008DFE2C20FFF742FE3846FFF7E6FF404621
:1013E000FFF7E0FF4846FFF7DAFF3846FFF7A6FFB2
:1013F000E9480470204604EBD0714910A4EB410188
:1014000061B1A020E54908708020E54908701420EA
:10141000E44908700820E44908700BE0A020E04986
:1014200008708020DD4908701020DE4908700A200D
:10143000DD490870002034E000252EE0002628E079
:10144000202100EBC00202EB0012D84B03EBC202DA
:1014500005EB850302EB4302915500EBC00101EB64
:101460000011D34A02EB011105EB850201EB820169
:1014700021F8168000EBC00101EB0011CD4A02EB10
:10148000011105EB850201EB820121F81670711C38
:10149000CEB20A2ED4DD691CCDB2142DCEDD411C96
:1014A000C8B20228C8DBBDE8F0870120C249087035
:1014B00070470020C0490870704770B504460D465B
:1014C0002A20FFF7CBFD0020FFF7ECFDA11CC8B2DE
:1014D000FFF7E8FD0020FFF7E5FDE11CC8B2FFF7CC
:1014E000E1FD2B20FFF7BAFD0020FFF7DBFD691CB3
:1014F000C8B2FFF7D7FD0020FFF7D4FDA91CC8B282
:10150000FFF7D0FD2C20FFF7A9FD70BD2DE9F041BC
:1015100004460D4616461F462A20FFF79FFD002071
:10152000FFF7C0FDA11CC8B2FFF7BCFD0020FFF70C
:10153000B9FDB11CC8B2FFF7B5FD2B20FFF78EFD3A
:101540000020FFF7AFFD691CC8B2FFF7ABFD00201C
:10155000FFF7A8FD791CC8B2FFF7A4FD2C20FFF708
:101560007DFDBDE8F08170B5002416E0002510E097
:10157000202004EB84018D4A02EB410148552021D3
:1015800004EB84028948C83000EB42004155681CD6
:10159000C5B20A2DECDD601CC4B2142CE6DD7B481C
:1015A0000088FFF7CBFE70BD10B50146002032E089
:1015B0002022784B1B7803EBC30404EB03137B4C12
:1015C00004EBC30300EB800403EB44035A546E4A5C
:1015D0001288704B1B7803EBC30404EB0313744CA9
:1015E00004EB031300EB800403EB840323F81120C6
:1015F000664A1288674B1B7803EBC30404EB0313A2
:101600006C4C04EB031300EB800403EB840323F81E
:101610001120421CD0B21428CADB10BD10B5002026
:101620005B490870002404E02046FFF7BDFF601C02
:10163000C4B20A2CF8DB10BD70B504460D46164640
:101640005548007830B1012809D002280ED003286F
:101650001CD114E029462046FFF72FFF16E0C5F104
:101660007F01C8B22146FFF728FF0FE0C5F19F02B6
:10167000D1B2C4F17F02D0B2FFF71FFF06E0C4F180
:101680009F00C1B22846FFF718FF00BF00BF30120D
:10169000FFF708FDF0B2FFF705FD70BDF0B502469B
:1016A0003C48007800EBC00606EB00103F4E06EB0E
:1016B000C00002EB820600EB4600465C354800782D
:1016C000451C05EBD5704010A5EB400000EBC007B2
:1016D00007EB0010354F07EBC00002EB820700EB71
:1016E0004700405C86424BD12A48007800EBC00698
:1016F00006EB00102E4E06EB001002EB820600EB0C
:10170000860030F8116023480078441C04EBD47044
:101710004010A4EB400000EBC00707EB0010244F83
:1017200007EB001002EB820700EB870030F8110096
:10173000864225D11748007800EBC00606EB001062
:101740001C4E06EB001002EB820600EB860030F820
:10175000116010480078431C03EBD3704010A3EBDA
:10176000400000EBC00707EB0010124F07EB001022
:1017700002EB820700EB870030F8110086421DD093
:101780000120F0BD2A0600202806002026060020A1
:1017900030060020330600202C0600202E060020F4
:1017A0002F0600203106002032060020E806002027
:1017B00078080020980B00202D0600200020F0BDA6
:1017C0000FB4F0B5C1B005460E460027002449A865
:1017D000009001A8009A489904F088F80020009031
:1017E00001AC54E020785B2802D10127641C4EE054
:1017F00020785D2802D10027641C48E020780D285D
:1018000002D020780A2801D1641C40E0FE4800780C
:10181000854203DCFD480078864200DD3AE014F89A
:10182000010BFB49097801EBC10202EB0111F94AF6
:1018300002EBC10105EB850201EB4201885517B1AE
:10184000F548008801E0F5480088F149097801EB86
:10185000C10202EB0111F24A02EB011105EB850214
:1018600001EB820121F81600EE480088E84909786A
:1018700001EBC10202EB0111EB4A02EB011105EB96
:10188000850201EB820121F81600681CC5B22078A0
:101890000028A7D100BF41B0F0BC5DF814FB0FB425
:1018A00070B5C2B000260024002547A8019002A808
:1018B000019A469904F01AF800200190DB4800785C
:1018C000D2490978884202DD0020D849087002AC6C
:1018D0005CE020785B2802D10126641C56E0207869
:1018E0005D2802D10026641C50E020780D2802D02B
:1018F00020780A2801D1641C48E0C348007885425A
:1019000005DCCA480078C1490978884200DD40E01A
:1019100014F8010BBE49097801EBC10202EB011179
:10192000BC4A02EBC10105EB850201EB4201BF4A53
:101930001278885416B1B848008801E0B74800888A
:10194000B349097801EBC10202EB0111B44A02EB81
:10195000011105EB850201EB8201B44A127821F8EE
:101960001200B0480088AA49097801EBC10202EBD5
:101970000111AD4A02EB011105EB850201EB820179
:10198000AA4A127821F81200681CC5B220780028F3
:101990009FD100BFA54800789C490978884201DDA5
:1019A000002002E0A1480078401CA049087042B025
:1019B00070BC5DF814FB70472DE9F05F00269C4871
:1019C000007808B9BDE8F09F9A48007830B1012846
:1019D00075D0022874D0032873D116E20025A0E048
:1019E000002499E0E9B2E0B2FFF758FE002869D080
:1019F000012605E0A019102800DB0BE0701C06B2E0
:101A0000A019102806DAE9B2A219D0B2FFF746FEF3
:101A10000028EFD100BF05F1010C4FF0010ECEEB15
:101A20000C1C0CF0FF0304EB060CCEEBCC0C0CF002
:101A3000FF024FEA057C4FEA1C614FEAC46C4FEA93
:101A40001C60FFF763FDAA464FF000085CE000272A
:101A500053E0F91707EB517104EBE1010FFA81F93B
:101A60006B49097801EBC10202EB0111694A02EBF3
:101A7000C10109EB890201EB420111F80A1020397A
:101A800008EB01116C4A515C3846FA1707EB5272A9
:101A9000D210A7EBC20380221A41114099B15C49D0
:101AA000097801EBC10202EB01115D4A02EB011161
:101AB00009EB890201EB820131F81A1012E034E0DF
:101AC000F7E04CE226E05249097801EBC10202EB53
:101AD0000111554A02EB011109EB890201EB820168
:101AE00031F81A108B464FEA2B20FFF7DBFA0BF088
:101AF000FF00FFF7D7FA781C07B2B7EBC60FA8DBD9
:101B000008F101000FFA80F8B8F1100F9FDB701E8A
:101B1000204404B2601C04B2102CFFF663AF681CB2
:101B200005B20A2DFFF65CAF19E20024BDE00725DF
:101B3000B6E0E9B2E0B2FFF7B1FD002863D00126BC
:101B400004E0A81B00D50AE0701C06B2A81B06D44E
:101B5000AA1BD1B2E0B2FFF7A1FD0028F1D100BF6E
:101B600004F1010C4FF0010ECEEBCC0C0CF0FF0396
:101B7000C5F1070CB444CEEB0C1C0CF0FF024FEA8D
:101B8000C46C4FEA1C61C5F1070C4FEA0C7C4FEAAC
:101B90001C60FFF7BBFCA14600277AE04FF000086D
:101BA00072E04FEAE87108EB1171A5EB21110FFA11
:101BB00081FA1749097801EBC10202EB0111154ABC
:101BC00002EBC10109EB890201EB420111F80A1095
:101BD0002039102202EB011140464FEAE87208EB6F
:101BE00012721211A8EB0212891A491E124A515C94
:101BF00080223A41114059B30549097801EBC102ED
:101C000002EB01111AE049E0310600203206002003
:101C100033060020E80600202A06002028060020BF
:101C20007808002026060020980B002030060020AF
:101C30002D0600202C06002026000020CE4A02EBB4
:101C4000011109EB890201EB820131F81A100EE053
:101C5000CA49097801EBC10202EB0111C84A02EB43
:101C6000011109EB890201EB820131F81A108B4650
:101C70004FEA2B20FFF716FA0BF0FF00FFF712FADE
:101C800008F101000FFA80F8B8EB061F89DB781C19
:101C900007B2082F82DB701E281A05B2681E05B233
:101CA000002DBFF646AF601C04B2142CFFF63FAF08
:101CB00055E10925A5E00F249EE0E9B2E0B2FFF767
:101CC000EDFC00287ED0012604E0A01B00D50AE030
:101CD000701C06B2A01B06D4E9B2A21BD0B2FFF75B
:101CE000DDFC0028F1D100BFC5F10A0C4FF0010E58
:101CF000CEEB0C1C0CF0FF03C4F10F0CB444CEEB84
:101D0000CC0C0CF0FF02C5F1090C4FEA0C7C4FEA39
:101D10001C61C4F10F0C4FEACC6C4FEA1C60FFF75A
:101D2000F5FBAA464FF000085EE0002755E0F917E2
:101D300007EB5171A4EBE1010FFA81F98F490978A2
:101D400001EBC10202EB01118E4A02EBC10109EB6A
:101D5000890201EB420111F80A102039C8F10F0283
:101D600002EB0111884A515C3846FA1707EB5272B0
:101D7000D210A7EBC202C2F107028023134119401F
:101D800079B17E49097801EBC10202EB01117A4A6F
:101D900002EB011109EB890201EB820131F81A1003
:101DA0000EE07649097801EBC10202EB0111744A99
:101DB00002EB011109EB890201EB820131F81A10E3
:101DC0008B4600E016E04FEA2B20FFF76BF90BF093
:101DD000FF00FFF767F9781C07B2B7EBC60FA6DB69
:101DE00008F101000FFA80F8B8F1100F9DDB701EAA
:101DF000201A04B2601E04B2002CBFF65EAF681E4B
:101E000005B2002DBFF657AFA9E01324A3E00025CB
:101E10009CE0E9B2E0B2FFF741FC00287DD001264A
:101E200005E0A819082800DB0BE0701C06B2A81911
:101E3000082806DAAA19D1B2E0B2FFF72FFC002871
:101E4000EFD100BFC4F1140C4FF0010ECEEBCC0C5F
:101E50000CF0FF0305EB060CCEEB0C1C0CF0FF02A4
:101E6000C4F1130C4FEACC6C4FEA1C614FEA057CBD
:101E70004FEA1C60FFF74AFBA14600275FE04FF0E6
:101E8000000857E04FEAE87108EB117105EB2111EA
:101E90000FFA81FA40464FEAE87108EB1171091117
:101EA000A8EB01123549097801EBC10303EB0111DD
:101EB000344B03EBC10109EB890301EB430111F83A
:101EC0000A10203902EB01112F4A515CC7F10702B9
:101ED00080231341194079B12849097801EBC102E7
:101EE00002EB0111244A02EB011109EB890201EB1B
:101EF000820131F81A100EE02049097801EBC10285
:101F000002EB01111E4A02EB011109EB890201EB00
:101F1000820131F81A108B4600E015E04FEA2B20C1
:101F2000FFF7C0F80BF0FF00FFF7BCF808F1010065
:101F30000FFA80F8B8EB061FA4DB781C07B2082F55
:101F40009DDB701E284405B2681C05B2082DFFF603
:101F500060AF601E04B2002CBFF659AF00BF00BFD7
:101F600006490978481C00EBD0714910A0EB4101EB
:101F7000024A117000BF25E57808002033060020D2
:101F8000980B0020E8060020260000201FB5012144
:101F9000102002F0E4F80020ADF806004FF40070C5
:101FA000ADF80C005320ADF8040040F2E730029089
:101FB00001A9294802F0CBFC01221146264803F072
:101FC00067F936208DF8000000208DF8010005200B
:101FD0008DF8020001208DF80300684601F08BFAAD
:101FE00001211D4802F03CFD00201C4908601FBD76
:101FF0001A4A116800BF194A1268521A8242FAD36B
:10200000704710B50121144803F059F940B1134845
:102010000068401C1149086001210F4803F060F975
:1020200010BD08B5C0EBC0018900009100E000BF01
:1020300000994A1E00920029F9D108BD08B546F65C
:1020400060514143009100E000BF00994A1E009298
:102050000029F9D108BD000000100040380600201A
:10206000B0EE401AB4EEE01AF1EE10FA09D8F1EE33
:10207000601AB4EEE11AF1EE10FA02DBB0EE410A9A
:1020800009E0B4EEE01AF1EE10FA02DDB0EE600AFB
:1020900001E0B1EE600A704770B52DED028B054688
:1020A0000E461446A81B00EE100AB8EEC00AB0EEA9
:1020B000408A94ED000AB8EEC00A30EE080ABDEE80
:1020C000C00A84ED000AD4ED000AF8EEE00AB0EE92
:1020D000600ADFED6A0AFFF7C3FFBDEEC00A84EDB8
:1020E000000A94ED000AB8EEC00AD4ED020A20EE10
:1020F000200AD4ED010A08EE200AF0EE408ADFED56
:10210000600AB0EE680AFFF7ABFFBDEEC00A10EE42
:10211000100A00B2BDEC028B70BD00205949C861A5
:102120000021584801624162816270472DE9F04701
:1021300005460E4690461F46089C2068400000EE6B
:10214000100AB8EEC00A4F4880ED000A60684000EF
:1021500000EE100AB8EEC00A4A4880ED010A94ED7C
:10216000020AB8EEC00A80ED020A90ED010AD0ED35
:10217000000A30EE600AD0ED020A30EE200A80ED4F
:10218000030A90ED010AD0ED000A30EE200AD0EDEE
:10219000020A30EE600A80ED040A90ED010AD0EDEB
:1021A000000A30EE600AD0ED020A30EE600A80EDDF
:1021B000050A90ED010AD0ED000A30EE200AD0EDBC
:1021C000020A30EE200A80ED060AFEF74EFEFEF708
:1021D00040FEFEF756FEFEF760FE0020FEF76BFEA7
:1021E0008146284991ED030ABDEEC00A10EE100A9F
:1021F0002A464946FFF750FF2249C8610120FEF7F1
:102200005AFE81461F4991ED040ABDEEC00A10EE48
:10221000100A32464946FFF73FFF1A49086202207A
:10222000FEF749FE8146174991ED050ABDEEC00A49
:1022300010EE100A42464946FFF72EFF1149486248
:102240000320FEF738FE81460E4991ED060ABDEEE9
:10225000C00A10EE100A3A464946FFF71DFF094929
:1022600088628C46DCF82830DCF82420DCF820106A
:10227000DCF81C00FEF79CFBBDE8F08700401C4723
:1022800000409C46B80E002000B587B001218805AB
:1022900001F01CFF0121084601F072FF072209210D
:1022A0009B4801F000FD07220A21994801F0FBFC40
:1022B0004FF40070059002208DF8180000208DF872
:1022C0001A0001208DF81B0003208DF8190005A9C4
:1022D0008F4801F05DFC4FF48060059002208DF87E
:1022E000180005A98A4801F053FC0121102001F0D3
:1022F00047FF4FF4165001900020ADF80800ADF8EC
:102300000A00ADF80C00ADF810000C20ADF80E007E
:1023100001A9804803F027F903208DF80200252049
:102320008DF8000003208DF8010001208DF80300D6
:10233000684601F0E0F8012240F22441754803F0BC
:1023400050FA0121734803F096F9012240217148A7
:1023500003F03EFA07B000BD00B58FB04FF000604B
:102360000090C01409906B48001D01906A480290CB
:102370000020039008200490002005904FF4806016
:1023800006900020079008904FF480300A900020BB
:102390000B9003200C9000200D900E9069465F4832
:1023A00001F0B6F901215D4801F0ECF90FB000BD74
:1023B00010B55B495948483001F041FAE0B10021BD
:1023C0005648483001F0DEF95448483001F0FDF934
:1023D000C0F1080000B25349088053494F484830C3
:1023E00001F049FA08214D48483001F0ECF901218B
:1023F0004A48483001F0C6F910BD10B540F22441FA
:10240000444803F029FA00287ED00021434801F017
:10241000B9F9424801F0D9F9C0F1080000B24149C8
:1024200008803D480078AA284BD13B484078AA282C
:1024300047D139488079552843D13748C079552844
:102440003FD135488078702804DA3348807837499E
:10245000086006E030488078C0F58070404233491B
:1024600008602D48C078702804DA2B48C0782F49BE
:10247000486006E02848C078C0F5807040422B498B
:10248000486025480079702804DA234800792749F4
:10249000886006E020480079C0F5807040422349FA
:1024A00088601D484079702804DA1B4840791F492C
:1024B000C86006E018484079C0F5807040421B496A
:1024C000C8601848008850B14FF40071184801F0F6
:1024D000DDFB4FF48061164801F0D8FB09E04FF4B2
:1024E0000071134801F0D0FB4FF48061104801F0F7
:1024F000CBFB0D49094801F0BEF90821074801F05E
:1025000062F90121054800E001E001F03BF910BD4E
:1025100000000240001001403C06002040640240E0
:102520000008002044060020400F0020E80E002094
:10253000001402401CB54FF4E050009002208DF8CA
:1025400004008DF8050000208DF806008DF80700C6
:102550006946FE4801F01CFB012000908DF8040044
:1025600002208DF8050000208DF8060001208DF86E
:1025700007006946F64801F00BFB06220A21F348E2
:1025800001F091FB06220B21F04801F08CFB0622A2
:102590000C21EE4801F087FB0121C80301F0DFFDAB
:1025A00001210C2001F092FD1CBD70B504460D46C2
:1025B0000121E74801F06AFB00BF0221E54802F073
:1025C000E9F80028F9D02146E24802F09AF800BF65
:1025D0000121E04802F0DEF80028F9D0DD4802F0E1
:1025E0008DF800BF0221DB4802F0D4F80028F9D0B2
:1025F0002946D84802F085F800BF0121D54802F0ED
:10260000C9F80028F9D0D34802F078F80121D04861
:1026100001F03AFB70BD00B585B0FFF78BFF0121DB
:10262000CB4801F031FB0020ADF800004FF4827080
:10263000ADF802000020ADF804000220ADF806005D
:102640000120ADF808004002ADF80A000020ADF806
:102650000C00ADF80E006946BE4801F0D7FE01211E
:10266000BC4801F0CDFFC0216B20FFF79EFF642026
:10267000FFF7BEFC07216820FFF797FF6420FFF7F4
:10268000B7FC01216B20FFF790FF6420FFF7B0FC3F
:1026900003211A20FFF789FF6420FFF7A9FC082116
:1026A0001B20FFF782FF6420FFF7A2FC10211C20F3
:1026B000FFF77BFF6420FFF79BFC03211D20FFF742
:1026C00074FF05B000BD10B504460121A04801F01B
:1026D000DDFA44F0800400BF02219E4802F05AF85F
:1026E0000028F9D021469B4802F00BF800BF0121D9
:1026F000984802F04FF80028F9D0964801F0FEFF04
:1027000000BF0221934802F045F80028F9D00021CB
:10271000904801F0F6FF00BF01218E4802F03AF820
:102720000028F9D001218A4801F0AEFA0A20FFF70B
:1027300078FC884801F0E2FFC0B210BD10B5044635
:102740004320FFF7C0FF844908704420FFF7BBFF18
:102750008149487008464078097840EA012000B273
:102760007E4908804520FFF7AEFF7B490870462070
:10277000FFF7A9FF7849487008464078097840EA91
:10278000012000B2764908804720FFF79CFF72497C
:1027900008704820FFF797FF6F4948700846407857
:1027A000097840EA012000B26E4908803B20FFF71B
:1027B0008AFF694908703C20FFF785FF6649487029
:1027C00008464078097840EA012000B2664908804E
:1027D0003D20FFF778FF604908703E20FFF773FF48
:1027E0005D49487008464078097840EA012000B207
:1027F0005E4908803F20FFF766FF57490870402078
:10280000FFF761FF5449487008464078097840EA6C
:10281000012000B256490880E06AE8BBD4ED060A00
:102820005148B0F9000000EE100AB8EEC00A20EEE0
:10283000800A84ED030AD4ED060A4C48B0F9000082
:1028400000EE100AB8EEC00A20EE800A84ED040AF9
:10285000D4ED060A0846B0F9000000EE100AB8EE02
:10286000C00A20EE800A84ED050AD4ED070A3B4831
:10287000B0F9000000EE100AB8EEC00A20EE800A9F
:1028800084ED000AD4ED070A3548B0F9000000EEE7
:10289000100AB8EEC00A00E011E020EE800A84EDD4
:1028A000010AD4ED070A2F48B0F9000000EE100A23
:1028B000B8EEC00A20EE800A84ED020A69E0D4ED89
:1028C000060A2948B0F9000000EE100AB8EEC00A66
:1028D00020EE800A84ED030AD4ED060A2348B0F9FD
:1028E000000000EE100AB8EEC00A20EE800A84ED67
:1028F000040AD4ED060A1E48B0F9000000EE100AE2
:10290000B8EEC00A20EE800A84ED050A94ED080AAC
:1029100094ED071A1148B0F9000000EE900AF8EEA5
:10292000E00A10EE810A84ED000A94ED090A94EDA4
:10293000071A0B48B0F9000000EE900AF8EEE00A22
:1029400010EE810A84ED010A14E000000008024044
:10295000000C0240003C00405406002048060020C5
:102960004A0600204C0600204E060020500600209B
:102970005206002094ED0A0A94ED071A3E48B0F979
:10298000000000EE900AF8EEE00A10EE810A84EDF5
:10299000020A10BD70B5044640F2DC5500261EE068
:1029A0002046FFF7CBFE94ED000A3448D0ED000A34
:1029B00030EE200A80ED000A94ED010A3048D0ED97
:1029C000000A30EE200A80ED000A94ED020A2D483C
:1029D000D0ED000A30EE200A80ED000A761CAE42EF
:1029E000DEDB2648D0ED000A00EE105AB8EEC00A31
:1029F00080EE801A84ED081A2148D0ED000A00EE1E
:102A0000105AB8EEC00A80EE801A84ED091A1D48EB
:102A1000D0ED000A00EE105AB8EEC00A80EE801A1F
:102A200084ED0A1A0120E06270BD70B504460025ED
:102A30001DE02046FFF782FE94ED053AF0EE432AB2
:102A400094ED043AB0EE432A94ED033AF0EE431AC3
:102A500094ED023AB0EE431A94ED013AF0EE430AD7
:102A600094ED003AB0EE430A00F0B8F86D1C43F65E
:102A700098208542DDDB70BD4C0600205806002002
:102A80005C0600206006002000B585B001210846E4
:102A900001F01CFB032202213E4801F004F903224D
:102AA00011463C4801F0FFF80C20039002208DF8FD
:102AB00010008DF8110000208DF8120001208DF813
:102AC000130003A9334801F063F80121080401F061
:102AD00057FB2920ADF800000020ADF8020049F6B0
:102AE0003F4001900020ADF8080069462A4801F0F7
:102AF0002EFF6020294908800120488041F63800D7
:102B0000886000208881244801F0B6FF082122480F
:102B100002F03FF96020224908800120488041F6F8
:102B200038008860002088811B4801F0DEFF082102
:102B3000194802F037F90121174801F073FF01210C
:102B4000154801F08DFF05B000BD70B505460C4677
:102B500041F29410854200DA054641F64C50854218
:102B600000DD054641F29410844200DA044641F645
:102B70004C50844200DD0446084885600146064802
:102B800001F07AFF064884600146034801F0ADFF7A
:102B900070BD00000000024000400140F80E00201F
:102BA0000C0F0020F0EE400AF6EE001A60EEA11ABB
:102BB000B0EE611AB0EE600A10EE100AF949A1EB0E
:102BC000600000EE100A21EE002AF7EE081A42EE2D
:102BD000401A61EE801AB0EE610A704700B52DED23
:102BE000108B81B0F0EE404AB0EE605AF0EE415AE0
:102BF000F0EE613AB0EE423AB0EE624AEA4890ED49
:102C0000000AB1EE400A20EE240AE848D0ED000A9E
:102C100000EEC50AE648D0ED000A00EEE50AF6EE41
:102C2000000A20EE200AF0EE40EAE24890ED000AA9
:102C300020EE240ADD48D0ED000A00EEA50ADC48AB
:102C4000D0ED000A00EEC50AF6EE000A20EE200ADA
:102C5000B0EE40FAD74890ED000A20EE050AD248BF
:102C6000D0ED000A00EEE50AD148D0ED000A00EEF2
:102C7000A40AF6EE000A20EE200AF0EE40FACD4853
:102C800090ED000A20EE250AC748D0ED000A00EEBC
:102C9000850AC648D0ED000A00EEE40AF6EE000A06
:102CA00020EE200A8DED000AF5EEC03AF1EE10FAA2
:102CB00009D1B5EEC03AF1EE10FA04D1B5EEC04A32
:102CC000F1EE10FA7DD063EEA30A43EE030A44EE60
:102CD000040AB0EE600AFFF765FFF0EE402A23EE2B
:102CE000A20AF0EE403A23EE220AB0EE403A24EE79
:102CF000220AB0EE404AAF4890ED000AF0EE000A1A
:102D000020EE20AAA84890ED000AF0EE000A60EE3E
:102D100020AAA64890ED000AF0EE000A20EE20BAA4
:102D2000A34890ED000AF0EE000A60EE20BAA14838
:102D300090ED000AF1EE000A20EE20CA9A4890EDCC
:102D4000000AF1EE000A60EE208A984890ED000A31
:102D5000F1EE000A20EE209A934890ED000AF2EE80
:102D6000000A60EE20CA914890ED000AF2EE000AD7
:102D700020EE20DA8F4890ED000AD0ED000A60EED8
:102D800020DA894890ED000AD0ED000A20EE206A92
:102D9000864890ED000AD0ED000A60EE206A844873
:102DA00090ED000AD0ED000A20EE20EA2CEE260A73
:102DB0000BEE230A0CEE060A0AEEC30AF0EE409A66
:102DC00000E087E028EE8E0A0BEEE30AF1EE000A3F
:102DD0006DEEA00A744890ED001A00EE810A0AEE2A
:102DE000430A30EE680A0CEE860A0CEEA60A08EEDC
:102DF000840AB0EE407AB1EE000A2DEE800A6B48EC
:102E0000D0ED000A20EE200A0AEE230A09EE0E0A8F
:102E10000BEEC30A30EE490A0DEE060A0DEE260A45
:102E200009EE040AF0EE407AB1EE000A26EE000A3E
:102E30005F48D0ED000A20EE200A0AEEE30AF1EE28
:102E4000000A66EEA00A90ED001A00EE810A0BEE71
:102E5000430AB0EE408A69EEA90A47EE070A47EE38
:102E6000A70A48EE080AB0EE600AFFF79BFEF0EEF4
:102E7000402A29EEA20AF0EE409A27EE220AB0EE8E
:102E8000407A27EEA20AF0EE407A28EE220AB0EE4F
:102E9000408A4948D0ED000AB0EE6E0A00EEE90A19
:102EA000F0EE40EAD0ED000AB0EE4F0A00EEC70A9D
:102EB000B0EE40FAD0ED000AB0EE6F0A00EEE70A7D
:102EC000F0EE40FA9DED000AD0ED000A00EEC80ACF
:102ED0008DED000A374890ED000ADFED380A0EEE5E
:102EE000A00A80ED000A304890ED000ADFED330AB9
:102EF0000FEE200A80ED000A2C4890ED000ADFED6D
:102F00002F0A0FEEA00A80ED000A2948D0ED000A32
:102F10009DED000A9FED291A40EE010AC0ED000A5E
:102F20002448D0ED000A90ED001A60EE810A1E4898
:102F300090ED001AD0ED001A41EE210A1B4890EDE9
:102F4000001AD0ED001A41EE210A194890ED001A3E
:102F5000D0ED001A41EE210AB0EE600AFFF722FE22
:102F6000F0EE402A134890ED000A20EE220A80ED90
:102F7000000A0D4890ED000A20EE220A80ED000ABA
:102F80000A4890ED000A20EE220A80ED000A084867
:102F900090ED000A20EE220A80ED000A01B0BDEC9F
:102FA000108B00BDDF59375F6C06002070060020D3
:102FB0007406002068060020640600200AD7A33C9F
:102FC00000B52DED108B85B0FE4890ED000AFE484F
:102FD000D0ED000A20EE200AFC48D0ED000AFC48A3
:102FE00090ED001A00EEC10AF0EE000A20EE200A71
:102FF000F0EE408AF54890ED000AF248D0ED000A64
:1030000020EE200AF248D0ED000AEF4890ED001AB9
:1030100000EE810AF0EE000A20EE200AB0EE40FA3F
:10302000EA4890ED000AD0ED000A20EE200AE548BB
:10303000D0ED000A90ED001A00EEC10AE448D0ED90
:10304000000A90ED001A00EEC10ADF48D0ED000A38
:1030500090ED001A00EE810AB0EE408A28EEA80A30
:1030600008EE080A10EE101A084605F06DFB41EC58
:103070001E0BB0EE4E0AF0EE6E0A04F0B5FCB0EE98
:1030800040CAF0EE60CA1FEE100A05F05DFB41EC8D
:103090001D0B53EC1C2B04F0FBFECDE902019DED52
:1030A000020B04F03DFAB0EE40BAF0EE60BA9FEDCC
:1030B000C90B53EC102B51EC1B0B05F085F841ECC0
:1030C0001A0B9FEDC60B53EC102B04F0E1FE41EC04
:1030D000190B04F003FE00EE100AC24880ED000A4E
:1030E0002FEE0F0A08EE080A10EE101A084605F037
:1030F0002BFBCDE900019DED000B04F075FCB0EE5B
:1031000040DAF0EE60DA18EE900A05F01DFB41ECB3
:103110001E0B53EC1D2B04F0BBFE41EC1C0BB0EE60
:103120004C0AF0EE6C0A04F0FBF9B0EE40BAF0EE97
:1031300060BA51EC1B0B04F0C5FD41EC1A0B9FED7E
:10314000A50B53EC102B05F03FF89FEDA40B53ECAF
:10315000102BCDE902019DED020B51EC100B04F098
:1031600097FE41EC190B04F0B9FD00EE100A9D48E2
:1031700080ED010A954890ED000AF0EE000A20EE7D
:10318000200AD0ED000A20EE200A8E48D0ED000A79
:10319000B0EE001A60EE810A90ED001A00EE810A8E
:1031A000F7EE000A30EE600A10EE101A084605F03D
:1031B000CBFA41EC1C0B834890ED000AF0EE000ABC
:1031C00020EE200A8248D0ED000A20EE200A7F4837
:1031D000D0ED000AB0EE001A60EE810A7A4890ED58
:1031E000001A00EEC10A10EE101A084605F0ACFAFB
:1031F00041EC1D0BB0EE4C1AF0EE6C1AB0EE4D0A1D
:10320000F0EE6D0A04F0F8FAB0EE40BAF0EE60BAF3
:103210009FED700B53EC102B51EC1B0B04F0D4FF03
:1032200041EC1A0B9FED6D0B53EC102B04F030FEAC
:1032300041EC190B04F052FD00EE100A694880EDD4
:10324000020A05B0BDEC108B00BD10B52DED0A8B48
:103250005C4890ED000AF0EE000A60EE200A90ED66
:10326000001AB7EE000A00EEC10A5948D0ED000A74
:10327000B0EE001A60EE810A90ED001A00EEC10A6D
:1032800010EE101A084605F05FFA41EC1B0B4F4890
:1032900090ED000AF0EE000A20EE200A4948D0ED39
:1032A000000A20EE200A4A48D0ED000AB0EE001ACB
:1032B00060EE810A444890ED001A00EE810A10EE9B
:1032C000101A084605F040FA41EC1C0BB0EE4B1A00
:1032D000F0EE6B1AB0EE4C0AF0EE6C0A04F08CFAC9
:1032E000B0EE40AAF0EE60AA9FED3A0B53EC102B23
:1032F00051EC1A0B04F068FF41EC190B9FED370BF2
:1033000053EC102B04F0C4FD41EC180B04F0E6FC68
:1033100000EE100A344880ED000A2C4890ED000AB7
:10332000F0EE000A20EE200A2948D0ED000A20EE37
:10333000200A2548D0ED000AB0EE001A60EE810A9E
:10334000204890ED001A00EEC10A10EE101A08464F
:1033500005F0FAF941EC1B0BB0EE4B0AF0EE6B0AEC
:1033600003F02EFFB0EE40AAF0EE60AA9FED190B1D
:1033700053EC102B51EC1A0B04F026FF41EC190B07
:103380009FED160B53EC102B04F082FD41EC180B53
:1033900004F0A4FC00EE100A134880ED010A0A486C
:1033A00090ED000AF0EE000A60EE200A90ED001A9F
:1033B000B7EE000A00EEC10A0548D0ED000AB0EEF3
:1033C000001A13E06C060020740600206806002036
:1033D000700600200000000000806640EA2E445481
:1033E000FB210940200F00202C0F002060EE810AF5
:1033F00090ED001A00EEC10A10EE101A084605F012
:10340000A3F941EC1B0B244890ED000AF0EE000AF2
:1034100020EE200A2148D0ED000A20EE200A2048A4
:10342000D0ED000AB0EE001A60EE810A1D4890ED62
:10343000001A00EE810A10EE101A084605F084F911
:1034400041EC1C0BB0EE4B1AF0EE6B1AB0EE4C0ACE
:10345000F0EE6C0A04F0D0F9B0EE40AAF0EE60AAEB
:103460001FED240B53EC102B51EC1A0B04F0ACFEA7
:1034700041EC190B1FED270B53EC102B04F008FD4A
:1034800041EC180B04F02AFC00EE100A064880ED0F
:10349000020ABDEC0A8B10BD6806002074060020ED
:1034A000700600206C0600202C0F00200948804781
:1034B00009480047FEE7FEE7FEE7FEE7FEE7FEE716
:1034C000FEE7FEE7FEE7FEE704480549054A064B2E
:1034D000704700005906000889010008980F002075
:1034E00098150020981100209811002032490143BE
:1034F000324A1160704770B5002100230F22C47852
:103500001CB32E4C246804F4E064C4F5E064C4F3F6
:103510000721C1F10404E3B20A4144789C40E1B2BE
:103520008478144021430C07210E254C0578615501
:10353000047804F01F050124AC4005786D11AD003E
:1035400005F1E025C5F8004109E0047804F01F0505
:103550000124AC401B4D0678761145F8264070BD1D
:10356000194A0A400243154B1B1F1A60704739B1B4
:10357000124A121D12680243104B1B1D1A6006E00E
:103580000E4A121D126882430C4B1B1D1A607047B5
:10359000042808D14FF0E021096941F004014FF0FF
:1035A000E022116107E04FF0E021096921F00401F8
:1035B0004FF0E022116170470000FA050CED00E0C9
:1035C00000E400E080E100E080FFFF1F016821F0DF
:1035D000010101600021016041608160C160016101
:1035E00021214161DB49884204D13D21D94A103A69
:1035F00091608CE0D7491831884205D14FF474614D
:10360000D44A103A916082E0D2493031884205D1E3
:103610004FF47411CF4A103A916078E0CD494831A7
:10362000884205D14FF07461CA4A103A91606EE049
:10363000C8496031884204D1C749C64A103AD160AE
:1036400065E0C4497831884204D1C449C14A103A7E
:10365000D1605CE0BF499031884204D1C049BD4A85
:10366000103AD16053E0BB49A831884205D14FF0F0
:103670003D51B84A103AD16049E0BA49884204D174
:103680003D21B84A083A116041E0B64918318842F4
:1036900005D14FF47461B34A083A116037E0B1497B
:1036A0003031884205D14FF47411AE4A083A1160A6
:1036B0002DE0AC494831884205D14FF07461A94AE8
:1036C000083A116023E0A7496031884204D1A24939
:1036D000A44A121F11601AE0A2497831884204D12D
:1036E0009E49A04A121F116011E09E499031884204
:1036F00004D19B499B4A121F116008E09949A831E7
:10370000884204D14FF03D51964A121F1160704714
:1037100010B500220268944B1A40CC680B68234312
:103720004C6923438C692343CC6923430C6A2343AC
:103730004C6A23438C6A23434C6B23438C6B234397
:103740001A430260426922F00702D1E90B34234395
:103750001A4342610B6943604B6883608B68C360A6
:1037600010BD0021016041608160C1600161416163
:103770008161C161016241628162C1620163416331
:103780008163704721B1026842F00102026003E0E8
:10379000026822F001020260704721B1026842F41F
:1037A0000042026003E0026822F4004202607047B7
:1037B00021B1026842F02002026003E0026822F0B8
:1037C000200202607047416070470146486880B23D
:1037D000704722B1036843F40023036003E00368E9
:1037E00023F4002303600161704721B1026842F4B1
:1037F0008022026003E0026822F4802202607047A7
:103800000AB1016100E0C1607047014600200A680A
:1038100002F400220AB1012000E0002070470146B6
:1038200000200A6802F001020AB1012000E0002035
:103830007047014600204A6902F03800704730B5F1
:1038400003460A4600200024464DAB4202D24149BD
:10385000103901E04349103902F000550DB14C68B0
:1038600000E00C68414D2C4004EA02050DB1012036
:1038700000E0002030BD02463A4B9A4202D2354861
:10388000103801E03748103801F000531BB1374BB6
:103890000B40C36002E0354B0B408360704710B5AE
:1038A00001F080034BB122B1436943F080034361CF
:1038B00003E0436923F08003436180290BD02AB1E0
:1038C000036801F01E042343036004E0036801F071
:1038D0001E04A343036010BD70B5024600200024FF
:1038E0000025204EB24202D21A4B103B01E01D4B84
:1038F000103B1F4E0E4036B11E2606EAD124166834
:1039000006EA040502E0566906F0800501F000565B
:103910000EB15C6800E01C68144E344004EA0106F5
:1039200016B10DB1012000E0002070BD02460D4B24
:103930009A4202D20748103801E00A48103801F0D4
:1039400000531BB1094B0B40C36002E0074B0B4017
:1039500083607047106002403D000020400F00204F
:1039600000003D20106402403F801CF07D0F7D0F61
:103970003C0F3C0F002041490860091D0860091DEB
:103980000860091D08603E483C49143108607047D2
:1039900000213A498279002A3AD00A46126803681F
:1039A0009A430B461A600A1D126803689A430B1D5E
:1039B0001A60027911440A6803681A430A602F4AA0
:1039C0000832126803689A432C4B08331A601A1D98
:1039D000126803689A43294B0C331A604279102A03
:1039E0000ED11A1F126803681A43244B08331A6059
:1039F0001A1D126803681A43204B0C331A600DE03D
:103A00001E49427911440A6803681A430A6005E0B6
:103A1000027911440A6803689A430A6070470021DA
:103A2000016001710C2141710021817170471349BE
:103A3000103109680143114A103211607047014684
:103A400000200E4A143212680A400AB1012000E038
:103A50000020704709491431086070470146002072
:103A6000064A143212680A400AB1012000E0002020
:103A7000704702491431086070470000003C014063
:103A8000FFFF7F0010B504469848844208D1012109
:103A9000084600F086FB0021012000F082FB76E062
:103AA0009348844208D10121022000F07AFB0021D2
:103AB000022000F076FB6AE08E48844208D10121A2
:103AC000042000F06EFB0021042000F06AFB5EE0A1
:103AD0008948844208D10121082000F062FB0021BE
:103AE000082000F05EFB52E08448844208D10121A6
:103AF000102000F056FB0021102000F052FB46E0A1
:103B00007F48844208D10121202000F04AFB002197
:103B1000202000F046FB3AE07A48844208D1012197
:103B2000402000F03EFB0021402000F03AFB2EE058
:103B30007548844208D10121802000F032FB002129
:103B4000802000F02EFB22E07048844208D1012141
:103B5000801500F026FB0021A01500F022FB16E0E6
:103B60006B48844208D10121401500F01AFB002166
:103B7000601500F016FB0AE06648844207D1012177
:103B8000001500F00EFB0021201500F00AFB10BD0F
:103B9000F0B50A4600210023002400BF3DE00125C6
:103BA00005FA01F3156805EA03049C4234D105685F
:103BB0004F000326BE40B543056015794E00B54061
:103BC0000668354305601579012D02D01579022D5F
:103BD00016D185684F000326BE40B54385605579F0
:103BE0004E00B540866835438560456801268E40A5
:103BF000B5434560456896798E40B6B23543456019
:103C0000C5684F000326BE40B543C560D5794E0058
:103C1000B540C6683543C560491C1029BFD3F0BD07
:103C20004FF6FF7101600021017141718171C17115
:103C3000704708B54FF480320092009A0A43009210
:103C4000009AC261C161009AC261C2690092C269F0
:103C5000009208BD0246002013690B400BB1012001
:103C600000E0002070470146086980B270470246B4
:103C7000002053690B400BB1012000E00020704789
:103C80000146486980B2704701837047418370479D
:103C90000AB1018300E04183704741617047426986
:103CA0004A4042617047F0B5002300244D07ED0EF5
:103CB00002FA05F3CE1000F1200555F826504E0704
:103CC000F70E0F26BE40B543CF1000F1200646F890
:103CD0002750CE1000F1200555F8265045EA030480
:103CE000CE1000F1200545F82640F0BD000002404E
:103CF0000004024000080240000C02400010024094
:103D00000014024000180240001C02400020024043
:103D10000024024000280240F948006840F00100F9
:103D2000F74908600020F64908310860F448006847
:103D3000F4490840F2490860F348091D0860F34857
:103D4000EF4984310860F0481038091D0860EC48DC
:103D5000006820F48020EA4908600020E8490C311E
:103D60000860E7498C31086070470021E44A921CE2
:103D7000117011460870704710B5014600220023EB
:103D800000204A11012A02D1DD4C236808E0022AF2
:103D900003D1DB4C7034236802E0D94C74342368BF
:103DA00001F01F02012494401C400CB1012000E0EE
:103DB000002010BD38B5002000900024002500BF71
:103DC0003120FFF7D9FF05460098401C009000986D
:103DD000B0F5A04F01D0002DF2D03120FFF7CCFF7D
:103DE00008B1012400E00024204638BD014600202F
:103DF000C34A106820F0F80040EAC1001060704724
:103E0000C349086070470021BD4A703211701170BB
:103E1000012802D004280AD104E00121B84A7032F6
:103E2000117005E00521B64A7032117000E000BF44
:103E300000BF7047B7490860704770B5049C41EAFD
:103E400082150126C6EB530645EA0645054345EAB9
:103E50000465AB4E361D356070BDAD4908667047D0
:103E6000820142EA0172A64B84331A607047A84966
:103E70008866704710B5830143EA016343EA027321
:103E80009F4C8834236010BDA14908677047A04942
:103E9000C864704702460020994B0833186820F028
:103EA000EC6042EA01031843954B083318607047F1
:103EB00002460020924B0833186820F0784042EA0E
:103EC000010318438E4B08331860704701460020E9
:103ED0008B4A0832106820F00300084310607047D6
:103EE00087480830006800F00C0070470146002049
:103EF000834A0832106820F0F000084310607047D1
:103F0000014600207E4A0832106820F4E050084341
:103F10001060704701460020794A0832106820F48A
:103F2000604040EAC10010607047F0B500210022F7
:103F30000024022500260223714F08373F6807F04E
:103F40000C0121B1042905D0082937D105E0724FB1
:103F5000076036E0714F076033E0694F3F1D3F68EF
:103F6000C7F38056664F3F1D3F6807F03F036EB1B1
:103F70006A4FB7FBF3F7DFF888C10CF1040CDCF8EB
:103F800000C0CCF3881C07FB0CF40CE0624FB7FBBD
:103F9000F3F7DFF86CC10CF1040CDCF800C0CCF3D3
:103FA000881C07FB0CF4564F3F1D3F68C7F30147C1
:103FB0007F1C7D00B4FBF5F7076002E0564F0760F9
:103FC00000BF00BF4E4F08373F6807F0F0010909F6
:103FD000534F7A5C0768D7404760494F08373F68BE
:103FE00007F4E051890A4E4F7A5C4768D7408760F2
:103FF000434F08373F6807F46041490B484F7A5CEC
:104000004768D740C760F0BD002100F44072B2F5A8
:10401000407F0AD13A4A0832116821F4F811414A26
:1040200002401143364A08321160354A7032126834
:10403000C0F30B031A43324B70331A607047354993
:104040004439086070473349403908607047364941
:104050000860704701460020294A8C32106820F021
:104060001F004A1E1043264A8C32106070470146DA
:104070000020234A8C32106820F4F8504A1E40EA8F
:1040800002201F4A8C3210607047014600201C4AF3
:104090008C32106820F440100843106070470146CD
:1040A0000020174A8C32106820F44000084310604A
:1040B000704701460020124A8C32106820F44030CC
:1040C00008431060704719490860704739B10C4ABD
:1040D0003032126802430A4B30331A6006E0084A55
:1040E000303212688243064B30331A607047F9B1A0
:1040F000034A343212680243014B34331A601CE025
:1041000000380240FFFFF6EA1030002400300020A3
:1041100000004742800E47420024F40000127A005B
:1041200078060020FFFCFF0F5C014742E011474288
:104130008F4A126882438E4B1A60704739B18C4A9D
:10414000121D126802438A4B1B1D1A6006E0884A42
:10415000121D12688243864B1B1D1A60704739B1CD
:10416000834A0C3212680243814B0C331A6006E01A
:104170007F4A0C32126882437D4B0C331A607047C1
:1041800039B17B4A103212680243794B10331A60FE
:1041900006E0774A103212688243754B10331A607A
:1041A000704739B1724A243A12680243704B243B7B
:1041B0001A6006E06E4A243A126882436C4B243B34
:1041C0001A60704739B16A4A203A12680243684B54
:1041D000203B1A6006E0664A203A12688243644B2C
:1041E000203B1A60704739B1614A1C3A1268024399
:1041F0005F4B1C3B1A6006E05D4A1C3A1268824322
:104200005B4B1C3B1A60704739B1594A143A12682B
:104210000243574B143B1A6006E0554A143A1268A1
:104220008243534B143B1A60704739B1504A103ADD
:10423000126802434E4B103B1A6006E04C4A103A9B
:10424000126882434A4B103B1A60704739B1484AA2
:104250001C3212680243464B1C331A6006E0444A83
:104260001C3212688243424B1C331A60704739B1CA
:104270003F4A2032126802433D4B20331A6006E069
:104280003B4A203212688243394B20331A60704710
:1042900039B1374A243212680243354B24331A604D
:1042A00006E0334A243212688243314B24331A60C9
:1042B000704739B12E4A2C32126802432C4B2C33F2
:1042C0001A6006E02A4A2C3212688243284B2C33AB
:1042D0001A60704739B1264A303212680243244BC3
:1042E00030331A6006E0224A303212688243204B93
:1042F00030331A607047012808D11D493C310968E4
:1043000041F008011A4A3C32116007E018493C317B
:10431000096821F00801164A3C321160704739B132
:10432000134A273A12780243114B273B1A7006E0D2
:104330000F4A273A127882430D4B273B1A70704779
:104340000B484030006840F08070094940310860F7
:10435000704701460020064A283A12680A400AB10E
:10436000012000E00020704701492639087070479D
:104370003438024010B50446FB48844208D101217C
:104380008014FFF752FF0021A014FFF74EFF3CE01E
:10439000F648844208D101210014FFF735FF0021BF
:1043A0002014FFF731FF30E0F148844208D10121A9
:1043B000C013FFF729FF0021E013FFF725FF24E0DA
:1043C000EC48844208D101214014FFF72EFF002160
:1043D0006014FFF72AFF18E0E748844209D1012161
:1043E0000805FFF722FF00214FF48010FFF71DFFA3
:1043F0000BE0E248844208D101214805FFF715FF90
:1044000000214FF40010FFF710FF10BD10B500227F
:10441000028802F441520B884C8823438C88234342
:10442000CC8823430C8923434C8923438C89234321
:10443000CC8923431A430280838B4FF2FF742340BD
:1044400083830B8A038210BD2DE9F04F00250223E0
:1044500000244FF0010900220026002794469046D0
:10446000B0F81CA04FF2400B0AEA0B0AA0F81CA0FF
:104470004FF0020AA0F820A0858BD1F808A0BAF16D
:10448000020F01D100BF82E0B1F804A0BAF1000F21
:1044900002D14FF0010901E04FF00209DFF8E0A27C
:1044A000DAF800A00AF4000ABAF1000F09D0DFF828
:1044B000D0A2DAF800A02AF4000ADFF8C4B2CBF8E0
:1044C00000A0DFF8BCA20AF17C0ADAF800A0CAF367
:1044D000881CDFF8ACA20AF17C0ADAF800A0CAF363
:1044E0000278DFF89CA2AAF1040ADAF800A00AF028
:1044F0003F07DFF88CA2AAF1040ADAF800A00AF458
:10450000800ABAF5800F08D1DFF878A2BAFBF7FA73
:104510000AFB0CFABAFBF8F607E0DFF86CA2BAFB6C
:10452000F7FA0AFB0CFABAFBF8F6B1F806A0BAF5EE
:10453000007F0ED14FEA162A0AEB8A0A4FEA4A0A8E
:10454000D1F808B0BAFBFBFA0AF1050A1FFA8AF2A1
:104550000FE04FEA491AB6FBFAFA0AEB8A0A4FEA69
:104560004A0AD1F808B0BAFBFBFA0AF1050A1FFAA9
:104570008AF24FF00A0AB2FBFAF202F00104A2EB4F
:10458000040ACAF34F034FF6FF7A0AEA0424022B07
:1045900001DBFF2B01DD02230024B1F806A04AEA6B
:1045A000040A4AEA030AA0F820A0B1F804A0B1F86E
:1045B0000CB04AEA0B0AB1F802B04AEA0B0AB1F8A9
:1045C00000B04AEA0B0A4AF4006A4AEA0505858304
:1045D000BDE8F08F0021018041808180C180018190
:1045E00041818181C18107210182704700210180C1
:1045F00041808180C18002218160002181817047DA
:1046000021B1028842F04002028004E002884FF6A5
:10461000BF731A400280704721B1828B42F48062DE
:10462000828304E0828B4FF6FF331A408283704707
:1046300002884FF2FF731A40028002880A43028008
:104640007047B1F5804F04D1028842F48042028065
:1046500004E002884BF6FF731A40028070474FF661
:10466000FF62914204D0028842F48072028004E02A
:1046700002884FF6FF631A400280704721B182889A
:1046800042F00402828004E082884FF6FB731A40F5
:104690008280704721B1828842F01002828004E05B
:1046A00082884FF6EF731A408280704730B500223F
:1046B0000023848B4FF240052C4084830224048421
:1046C000828B0C88B4F5007F01D00C8814B94FF4AC
:1046D000807308E00C88B4F5407F03D00C88B4F5F3
:1046E000807F00D100238C888D892C434D882C43FA
:1046F0001C4344F400642243828330BD0146888910
:1047000070478181704721B1028842F400520280D3
:1047100004E002884DF6FF731A400280704701885A
:1047200041F480510180704702460020012901D0E8
:10473000108B00E0908A70470146088A70471AB1D2
:1047400083880B43838002E083888B438380704798
:1047500030B5002400230C110125A540ABB2AAB14D
:1047600085881D43858014E00030014000380040FA
:10477000003C004000340140005001400054014022
:104780000838024000127A000024F40085889D4316
:10479000858030BD0246002013890B400BB10120FB
:1047A00000E000207047CA4302817047F0B502461E
:1047B000002000240023002501F00F070126BE4041
:1047C000B4B20B1101269E40B3B2968806EA0305E7
:1047D0001689264016B10DB1012000E00020F0BD81
:1047E00010B5002201F00F040123A3409AB2D34375
:1047F000038110BD10B50446FE48844208D1012152
:104800000846FFF712FD00210120FFF70EFD9DE095
:10481000B4F1804F08D101210846FFF7F5FC0021D3
:104820000120FFF7F1FC91E0F348844208D1012117
:104830000220FFF7E9FC00210220FFF7E5FC85E0FC
:10484000EE48844208D101210420FFF7DDFC00215D
:104850000420FFF7D9FC79E0E948844208D101211E
:104860000820FFF7D1FC00210820FFF7CDFC6DE008
:10487000E448844208D101211020FFF7C5FC002143
:104880001020FFF7C1FC61E0DF48844208D101211C
:104890002020FFF7B9FC00212020FFF7B5FC55E0F0
:1048A000DA48844208D101210220FFF7BEFC002132
:1048B0000220FFF7BAFC49E0D548844209D1012122
:1048C0000804FFF7B2FC00214FF48030FFF7ADFC85
:1048D0003CE0D048844209D101214804FFF7A5FCFF
:1048E00000214FF40030FFF7A0FC2FE0CA488442BB
:1048F00009D101218804FFF798FC00214FF48020A2
:10490000FFF793FC22E0C548844208D101214020F2
:10491000FFF77AFC00214020FFF776FC16E0C04844
:10492000844208D101218020FFF76EFC0021802005
:10493000FFF76AFC0AE0BB48844207D101218015D9
:10494000FFF762FC0021A015FFF75EFC10BD0022FE
:104950000288A84B98420ED0AC4B98420BD0B0F1D5
:10496000804F08D0A44B984205D0A44B984202D067
:10497000A34B984204D14FF68F731A404B881A43C9
:10498000A04B984207D0A04B984204D04FF6FF436B
:104990001A400B891A4302804B68C3620B88038557
:1049A000944B984202D0994B984201D18B7A03865E
:1049B0000123838270474FF0FF3141600021018065
:1049C00001814180817270470185828270470A4669
:1049D000002101884FF68F73194011430180704701
:1049E00041627047C16270470146486A704701469C
:1049F000088D704721B1028842F00202028004E073
:104A000002884FF6FD731A400280704721B1028878
:104A100042F00402028004E002884FF6FB731A4061
:104A20000280704721B1028842F08002028004E0D7
:104A300002884FF67F731A400280704702884FF653
:104A4000F7731A40028002880A4302807047028886
:104A50004FF6FF431A40028002880A4302807047E3
:104A600021B1028842F00102028004E002884FF680
:104A7000FE731A400280704770B5002400220023A4
:104A8000058C4FF6FE7635400584028C8388048BB6
:104A90004FF68F752C40B51E2C400D882C43751E8B
:104AA0002A408D892A434D882A43524DA84202D07C
:104AB000564DA84213D14FF6F7752A40CD892A43A7
:104AC0004FF6FB752A408D882A434FF6FF652B4031
:104AD0004FF6FF552B400D8A2B434D8A2B43838085
:104AE00004838D684563028470BD70B50024002284
:104AF0000023058C4FF6EF7635400584028C8388C1
:104B0000048B48F6FF752C404FF6FF452C400D886E
:104B10004FF6FF7606EA05252C434FF6DF752A404F
:104B20008D8906EA05152A434D8806EA05152A43AC
:104B3000304DA84202D0354DA8421DD14FF67F75A9
:104B40002A40CD894FF6FF7606EA05152A434FF62F
:104B5000BF752A408D8806EA05152A434FF6FF35B2
:104B60002B404FF2FF752B400D8A06EA85052B433B
:104B70004D8A06EA85052B43838004838D6885630F
:104B8000028470BD70B5002400220023058C4FF60E
:104B9000FF6635400584028C8388848B4FF68F75C1
:104BA0002C404FF6FC752C400D882C434FF6FF55DA
:104BB0002A408D894FF6FF7606EA05252A434D885F
:104BC00006EA05252A430B4DA84202D00F4DA84204
:104BD00038D14FF2FF752A40CD894FF6FF7606EAAD
:104BE00005252A434FF6FF352A408D8806EA05251C
:104BF0002A4319E000000140000400400008004082
:104C0000000C00400010004000140040000401406F
:104C100000400140004401400048014000180040AD
:104C2000001C0040002000404EF6FF752B404DF662
:104C3000FF752B400D8A06EA05152B434D8A06EABF
:104C400005152B43838084838D68C563028470BD02
:104C500070B5002200230024058C4EF6FF76354007
:104C60000584038C8488828B48F6FF752A404FF6B2
:104C7000FF452A400D884FF6FF7606EA05252A43B0
:104C80004DF6FF752B408D8906EA05352B434D887F
:104C900006EA05352B43FE4DA84202D0FD4DA84241
:104CA00008D14BF6FF752C400D8A4FF6FF7606EAC9
:104CB00085152C43848082838D680564038470BDD0
:104CC000002101804180818081608181C1810182D8
:104CD0004182704770B50346002000241846183002
:104CE00001258D40ACB21D8CA5431D8409B1082956
:104CF0000AD100EB610005684FF68F7635400560FC
:104D00000568154305600FE00D1FC5F34E052844E7
:104D1000056848F6FF763540056005684FF6FF7672
:104D200006EA02263543056070BD41637047816322
:104D30007047C1637047016470470A460021018BC8
:104D40004FF68F7319401143018370470A460021C3
:104D5000018B48F6FF7319404FF6FF7303EA0223F5
:104D60001943018370470A460021818B4FF68F73E8
:104D700019401143818370470A460021818B48F610
:104D8000FF7319404FF6FF7303EA0223194381832F
:104D900070470A460021018B4FF6F7731940114303
:104DA000018370470A460021018B4FF2FF731940BF
:104DB0004FF6FF7303EA02231943018370470A4643
:104DC0000021818B4FF6F77319401143818370479F
:104DD0000A460021818B4FF2FF7319404FF6FF7393
:104DE00003EA02231943818370470A460021018B9D
:104DF0004FF6FB7319401143018370470A460021A7
:104E0000018B4FF6FF3319404FF6FF7303EA02237D
:104E10001943018370470A460021818B4FF6FB73CB
:104E200019401143818370470A460021818B4FF658
:104E3000FF3319404FF6FF7303EA022319438183BE
:104E400070470A460021018B4FF67F7319401143CA
:104E5000018370470A460021018BC1F30E014FF612
:104E6000FF7303EA02231943018370470A460021B6
:104E7000818B4FF67F7319401143818370470A4637
:104E80000021818BC1F30E014FF6FF7303EA022369
:104E90001943818370470A460021018C4FF6FD7348
:104EA00019401143018470470A460021018C4FF6D6
:104EB000F77319401143018470470A460021018CA1
:104EC0004FF6DF7319404FF6FF7303EA02131943DD
:104ED000018470470A460021018C4FF67F73194008
:104EE0004FF6FF7303EA02131943018470470A4621
:104EF0000021018C4FF6FF5319404FF6FF7303EA70
:104F000002231943018470470A460021018C4FF2A5
:104F1000FF7319404FF6FF7303EA0223194301841C
:104F200070470A460021018C4DF6FF7319404FF679
:104F3000FF7303EA023319430184704730B500233D
:104F400001248C40A3B2048C9C430484048C02FA98
:104F500001F5ADB22C43048430BD30B500230424E8
:104F60008C40A3B2048C9C430484048C02FA01F5A7
:104F7000ADB22C43048430BD828B4FF2FF331A4014
:104F80008283828B4FF6FF7303EA01231A438283E5
:104F90007047F0B50C461546002100220026078C0C
:104FA0004EF6FF7C07EA0C070784818B028C4FF6D4
:104FB000FF7707EA043640F6FF4739404FF6FF77A0
:104FC00007EA052739434FF6FF7707EA03373943E6
:104FD00045F6FF773A4046F480573A43818302848E
:104FE000F0BD828B4FF6F3731A408283828B0A43A3
:104FF00082837047F0B50C4615460021002200263A
:10500000078C4FF6FF6C07EA0C070784818B028C34
:105010004FF6FF7707EA04264FF60C7739404FF634
:10502000FF7707EA03172F4339434FF2FF573A4000
:1050300046F480773A4381830284F0BD028B4FF2BD
:10504000FF331A400283028B4FF6FF7303EA0123FA
:105050001A4302837047F0B50C4615460021002222
:105060000026078C4FF6EF7C07EA0C070784018BBC
:10507000028C4FF6FF7707EA041640F6FF473940E7
:105080004FF6FF7707EA033739434FF6FF7703E020
:10509000000001400004014007EA052739434FF6AC
:1050A0005F773A4046F010073A4301830284F0BD2F
:1050B000028B4FF6F3731A400283028B0A4302837A
:1050C0007047F0B50C46154600210022068C4FF6BD
:1050D000FE773E400684018B028C4FF60C76314001
:1050E0007E1C06EA03162E4331434FF6F576324016
:1050F00044F00106324301830284F0BD70B50546D9
:105100000C46208850B92389A28861882846FFF779
:10511000D8FFE1882846FFF7CBFF25E02088042848
:105120000AD12389A28861882846FFF794FFE18885
:105130002846FFF783FF17E0208808280AD1238933
:10514000A28861882846FFF755FFE1882846FFF7C7
:1051500048FF09E02389A28861882846FFF719FFE4
:10516000E1882846FFF708FF70BD002101804180DB
:10517000012181800021C180018170472DE9F0412A
:1051800005460C4600260127608808B9022600E083
:105190000026A088012801D1022700E001272088ED
:1051A000A0B92389A28861882846FFF78AFFE18891
:1051B0002846FFF77DFF23893A4631462846FFF708
:1051C0004AFFE1882846FFF739FF13E02389A288C8
:1051D00061882846FFF73FFFE1882846FFF72EFF4A
:1051E00023893A4631462846FFF76BFFE188284677
:1051F000FFF75EFFBDE8F0810146486B704701464E
:10520000886B70470146C86B70470146086C704751
:105210000A884B881A438B881A43CB881A430B8918
:105220001A434B891A438B891A43A0F844207047CC
:105230000021018041808180C18001814181818183
:10524000704731B1B0F8442042F40042A0F8442045
:1052500005E0B0F84420C2F30E02A0F844207047E5
:1052600021B1828842F00402828004E082884FF6F5
:10527000FB731A408280704721B1828842F001029C
:10528000828004E082884FF6FE731A408280704765
:105290001AB183890B43838102E083898B43838125
:1052A00070478182704702460020138A0B400BB181
:1052B000012000E000207047CA430282704730B5E9
:1052C0000246002000230024158A05EA010395897F
:1052D00005EA010413B10CB1012000E0002030BD4B
:1052E000CA430282704741EA0203A0F8483070477F
:1052F0001AB183890B43838102E083898B438381C5
:10530000704721B1828842F00802828004E08288DE
:105310004FF6F7731A408280704701894FF6F87292
:105320001140018170470A46002101894FF68F73B1
:10533000194011430181704730B504460D46294696
:105340002046FFF7F0FF208940F00700208130BDA4
:105350002DE9F04104460D4616461F46602D06D144
:105360003B46012231462046FFF775FE05E03B46ED
:10537000012231462046FFF7A4FE29462046FFF7CA
:10538000D2FF208940F007002081BDE8F08130B5D0
:105390000C4600210189C9B24FF6FF7505EA0325C5
:1053A000154325432943018130BD2DE9F0410546D0
:1053B0000E4617469846002443463A46314628464C
:1053C000FFF7E5FF2C894FF6F870044044F007041E
:1053D0004FF68F70044044F070042C81BDE8F081DA
:1053E000F0B504460D4616461F463B463246294652
:1053F0002046FFF7CCFF208940F480402081F0BD9B
:1054000082884FF68F731A40828082880A43828096
:10541000704702894FF6F8731A40028102890A43E5
:105420000281704702894FF67F731A400281028918
:105430000A4302817047F0B50C4615461E4600210E
:10544000002200230189028B038C4FF6F877394044
:1054500021434FF6FC473A4040F201173A434FF6DA
:10546000DD773B404FF6FF7707EA06172F433B43B4
:10547000018102830384F0BD21B1828842F0800261
:10548000828004E082884FF67F731A4082807047E2
:10549000A0F850107047000010B50446FA48844246
:1054A00008D101211020FEF7C0FE00211020FEF7D8
:1054B000BCFE57E0F548844209D101214804FEF7BB
:1054C000A3FE00214FF40030FEF79EFE4AE0F048B4
:1054D000844209D101218804FEF796FE00214FF491
:1054E0008020FEF791FE3DE0EA48844209D1012187
:1054F000C804FEF789FE00214FF40020FEF784FE69
:1055000030E0E548844209D101210805FEF77CFE20
:1055100000214FF48010FEF777FE23E0DF4884423D
:1055200008D101212020FEF780FE00212020FEF777
:105530007CFE17E0DA48844209D101218807FEF792
:1055400063FE00214FF08040FEF75EFE0AE0D54882
:10555000844207D101214005FEF756FE0021600577
:10556000FEF752FE10BD2DE9FF4705460E4600240A
:10557000A14600BFA046B08900B100BF2C8A24F428
:105580004054F08804432C82AC8941F20C6084437F
:10559000B08831890843718908430443AC81AC8ADF
:1055A00024F44074B0890443AC826846FEF7BDFC25
:1055B000B548854202D0B948854202D1DDF80C9049
:1055C00001E0DDF80890A88900F4004040B109EB43
:1055D000C90000EB091031684900B0FBF1F707E0A2
:1055E00009EBC90000EB091031688900B0FBF1F745
:1055F0006420B7FBF0F004012009642101FB10785E
:10560000A88900F4004040B1322000EBC800B0FB94
:10561000F1F000F00700044308E0322000EB08102E
:105620006421B0FBF1F000F00F0004432C81BDE8D1
:10563000FF874FF41651016000218180C1800181F4
:105640000C21418100218181704710B50246002064
:10565000108A20F470600B884C8823438C88234385
:10566000CC8823431843108210BD00210180418063
:105670008180C180704721B1828942F400528281C9
:1056800004E082894DF6FF731A4082817047028BD5
:1056900002F47F420283028B0A430283704721B1E6
:1056A000828942F40042828103E08289C2F30E02C1
:1056B0008281704721B1828A42F40062828204E0D2
:1056C000828A4FF2FF731A4082827047C1F3080248
:1056D0008280704701468888C0F308007047028ABC
:1056E0004FF6F0731A400282028A0A430282704720
:1056F00021B1828942F00202828104E082894FF660
:10570000FD731A408281704782894FF2FF731A40FD
:10571000828182890A4382817047028A4FF6DF7351
:105720001A400282028A0A430282704721B1028A29
:1057300042F48042028204E0028A4BF6FF731A4070
:1057400002827047818941F001018181704721B156
:10575000828A42F00802828204E0828A4FF6F7735E
:105760001A4082827047028BD2B20283028B42EAD5
:1057700001220283704721B1828A42F02002828294
:1057800004E0828A4FF6DF731A408282704721B1AB
:10579000828A42F01002828204E0828A4FF6EF731E
:1057A0001A4082827047828A4FF6FB731A408282C7
:1057B000828A0A438282704721B1828A42F00202C1
:1057C000828204E0828A4FF6FD731A40828270471B
:1057D0001AB1838A0B43838202E0838A8B438382DC
:1057E0007047F0B50346002400260025002040F64F
:1057F0006A17B94200D100BF1846C1F3421401F044
:105800001F06012707FA06F5012C01D10C3004E030
:10581000022C01D1103000E014301AB107682F4378
:10582000076002E00768AF430760F0BD0246002052
:10583000B1F5007F00D100BF13880B400BB10120F0
:1058400000E00020704701F40072B2F5007F00D143
:1058500000BFCA430280704770B50246002400238F
:105860000025002040F66A16B14200D100BFC1F306
:10587000421501F01F03012606FA03F3012D13D18F
:105880009689334017E000000010014000440040BA
:1058900000480040004C004000500040001401400F
:1058A00000780040007C0040022D02D1168A33406F
:1058B00001E0968A33400C12012606FA04F4168899
:1058C000344013B10CB1012000E0002070BD10B5D0
:1058D0000022002340F66A14A14200D100BF0A1240
:1058E00001249440A3B2DC43048010BD1CB50C46D7
:1058F000064B7B4469460090204600F002FA0446BD
:105900000020694600F010FA20461CBD3304000058
:105910000FB41CB5084B06AA7B4469460090059855
:1059200000F0EFF904460020694600F0FDF920463A
:105930001CBC5DF814FB00000D0400002DE9F041D3
:105940000646002410687529314616A510D000F0CF
:105950002AF9002802DA404213A507E031688A07D5
:1059600001D512A502E0490704D511A5012401E0E3
:1059700000F022F900210A2206F1240709E0B0FB19
:10598000F2FCB0FBF2F302FB1C00303078541846F6
:10599000491C0028F3D123462A463046BDE8F04191
:1059A00000F03CB9000000002D0000002B000000BA
:1059B000200000002DE9F05F894604464FF0000A00
:1059C000DFF874B1FB44C0F820A02046E1688847A6
:1059D000002874D0252806D0D4E901219047206AF8
:1059E000401C2062F1E700265F462046E1688847B8
:1059F0002028054607DB312D05D2781910F8200C38
:105A000008B10643F1E7B00701D526F00406C4F853
:105A10001CA00027C4F818A02A2D09D0284602F09F
:105A2000D3F838B304EB8708303DC8F8185019E0B4
:105A300059F8041B204604EB87029161E16888470E
:105A4000012F054618D1E069002820DA26F020064B
:105A50001DE0D8F8180000EB800005EB400030385E
:105A6000C8F818002046E1688847054602F0ACF8FF
:105A70000028EED1012F0AD02E2D08D12046E16852
:105A800088477F1C0546022F46F02006C4DBA0692C
:105A9000002803DA404246F00106A061F00701D079
:105AA00026F010066C2D0BD0682D09D04C2D39D066
:105AB0006A2D35D0742D35D07A2D33D016E038E0EC
:105AC000E1682F4620468847B842054609D16C2F29
:105AD00026D04FF48060E16806432046884705469B
