:020000040800F2
:10000000181500204D2500083505000837050008A3
:100010003B0500083F0500084305000800000000FC
:10002000000000000000000000000000470500087C
:1000300049050008000000004B0500084D050008B8
:100040006725000867250008672500086725000860
:100050006725000867250008672500086725000850
:100060006725000867250008672500086725000840
:100070006725000867250008672500086725000830
:100080006725000867250008672500086725000820
:100090006725000867250008672500086725000810
:1000A0006725000867250008672500086725000800
:1000B000672500084F050008B30D000867250008F4
:1000C00067250008672500086725000867250008E0
:1000D00067250008E924000867250008672500084F
:1000E00067250008672500086725000867250008C0
:1000F00067250008672500086725000867250008B0
:10010000672500086725000867250008672500089F
:1001100067250008672500080520000867250008F6
:10012000672500086725000867250008672500087F
:10013000672500086725000867250008672500086F
:10014000672500086725000867250008672500085F
:100150009F24000867250008672500086725000818
:10016000672500086725000867250008672500083F
:10017000672500086725000867250008672500082F
:10018000672500086725000800F002F800F0B2F8C3
:100190000AA090E8000C82448344AAF10107DA45E2
:1001A00001D100F0A7F8AFF2090EBAE80F0013F082
:1001B000010F18BFFB1A43F0010318471464000035
:1001C000346400000A444FF0000C10F8013B13F0B7
:1001D000070408BF10F8014B1D1108BF10F8015BA0
:1001E000641E05D010F8016B641E01F8016BF9D193
:1001F00013F0080F1EBF10F8014BAD1C0C1B09D1EA
:100200006D1E58BF01F801CBFAD505E014F8016B5B
:1002100001F8016B6D1EF9D59142D6D370470000ED
:100220000023002400250026103A28BF78C1FBD8FF
:10023000520728BF30C148BF0B6070476E2904F0D9
:100240008B85702905F0DB80662906F03D816529E4
:1002500006F03A81672906F03781612906F0368178
:1002600003681B0A28BF41F08001692904F0B683A6
:10027000642904F0B383752904F0B0836F2905F075
:100280006880782905F0A780E92905F00380E42932
:1002900005F00080F52904F0FD87EF2905F0658061
:1002A000F82905F0A6800368DB0928BF41F080012A
:1002B000632905F0C182732905F0C682E32905F0A0
:1002C000D182F32905F0D682002070471FB506F0D1
:1002D000F6F805F09FF804000020002105F0D0FF9B
:1002E000401C60600020002105F0B4FFE0601FBDED
:1002F00010B510BD05F054FB1146FFF7E7FF00F005
:100300001EF805F07BFB03B4FFF7F2FF03BC05F01A
:10031000BFFB00001CB50121102002F027FF1020B8
:10032000009000208DF8040003208DF805000120C6
:100330008DF807006946774802F07AFC1CBD92B040
:1003400002F036F802F07FF89FED730A8DED100A87
:10035000B6EE000A8DED110A00200F909FED6F0A96
:100360008DED0D0A9FED6D0A8DED0E0A0C909FED3F
:100370006B0A8DED0A0A9FED690A8DED0B0A099053
:100380009FED660A8DED070A9FED640A8DED080A60
:10039000069001F0C2FE00F00DFA0024002600F0E5
:1003A0008BFA00F023FAFFF7B5FF00F018FC00F01D
:1003B00064FC00F0AFFC00F0A7FB01F0F1FD4FF68C
:1003C000FF7300221946104600F0FCFF012000F0E8
:1003D0007CFD07463A4652A101A804F0E9FA01AAB9
:1003E0000021084601F0F6F901AA0221084601F0B1
:1003F000F1F901F0EBFA00258AE04A4800688442EE
:1004000001D048480468A01B6428F5DD2021464837
:1004100004F05CFA01281CD1434804F0ABF905460E
:10042000302D0AD14FF40071404802F07DFC4FF4AA
:1004300080613E4802F078FC0BE0522D09D14FF468
:1004400000713A4802F072FC4FF48061374802F0C4
:100450006DFC264610212F4802F04CFC20B90120EB
:10046000334981F82C0003E00020314981F82C0049
:1004700006AB09AA0CA90FA801F058FE002000F055
:1004800024FD07463A4626A101A804F091FA01AAE4
:100490000121084601F09EF9012000F016FD0746F3
:1004A0003A461FA101A804F083FA01AA02210846D6
:1004B00001F090F9022000F008FD07463A4618A125
:1004C00001A804F075FA01AA0321084601F082F997
:1004D000032000F0FAFC07463A4611A101A804F0F7
:1004E00067FA01AA0421084601F074F90D48006872
:1004F0004FF47A71B0FBF1F73A4609A101A804F074
:1005000057FA01AA0021084601F064F901F05EFAE9
:1005100073E70000001002400000C8420000000025
:10052000256400003806002000100140001402403D
:10053000880E0020704700BFFEE700BFFEE700BF47
:10054000FEE700BFFEE7704770477047704710B581
:100550000121124803F003FFF8B101210F4803F015
:100560000FFF4FF400710E4802F0D1FBC0F1010003
:10057000C4B222464FF40071094802F0D9FB4FF48F
:100580008061074802F0C3FBC0F10100C4B22246FB
:100590004FF48061024802F0CBFB10BD0004004024
:1005A000001402400CB500200190009076480068CD
:1005B00040F480307449086000BF7348006800F45C
:1005C000003000900198401C0190009818B90198E3
:1005D000B0F5A04FF1D16C48006800F4003010B1C4
:1005E0000120009001E0002000900098012846D1F1
:1005F00065484030006840F08050634940310860F1
:100600006248006840F44040604908605E48083035
:1006100000685D49083108600846006840F4004001
:1006200008600846006840F4A05008605848091F58
:100630000860081F006840F08070091F086000BF54
:100640005148006800F000700028F9D040F20570B1
:10065000504908604C480830006820F003004A49BF
:10066000083108600846006840F00200086000BFDA
:1006700045480830006800F00C000828F8D10CBD8F
:1006800010B54548006840F47000434908603E4892
:10069000006840F001003C49086000203A490831F8
:1006A0000860394800683D490840374908603C48BF
:1006B000091D0860081F006820F48020091F0860D9
:1006C000002031490C310860FFF76CFF4FF00060EB
:1006D00031498039086010BD70B500200022022326
:1006E00000240221284D08352D6805F00C0020B1AA
:1006F000042806D0082834D107E02A4D2A4E356058
:1007000033E02A4D284E35602FE01F4D2D1D2D68FA
:10071000C5F380541C4D2D1D2D6805F03F0154B1CB
:10072000224DB5FBF1F5184E361D3668C6F3881616
:1007300005FB06F209E01B4DB5FBF1F5124E361D27
:100740003668C6F3881605FB06F20F4D2D1D2D6881
:10075000C5F301456D1C6B00B2FBF3F5124E35601D
:1007600003E0104D104E356000BF00BF064D083548
:100770002D68C5F303150E4E705D0B4D2D68C540F9
:10078000094E356070BD0000003802400070004026
:1007900008544007003C024088ED00E0FFFFF6FEF1
:1007A000103000240024F4000000002000127A0021
:1007B000040000201CB50121202002F0D7FC4FF4DA
:1007C000C060009001208DF8040000208DF8060024
:1007D00003208DF8050001208DF8070069460248C6
:1007E00002F026FA1CBD0000001402401CB50121D5
:1007F000022002F0BBFC4FF47C70009001208DF8C9
:10080000040000208DF806008DF8050001208DF809
:1008100007006946B44802F00BFA0121402002F0BB
:10082000A5FC4FF4FC40009001208DF8040000204E
:100830008DF806008DF8050001208DF80700694647
:10084000AA4802F0F5F94FF40061A84802F06EFAE8
:100850004FF48051A54802F067FA4FF40051A348C5
:1008600002F062FA4FF400719F4802F05FFA4FF411
:1008700000719E4802F058FA4FF480619B4802F0E4
:1008800053FA4FF48041994802F050FA10219648EB
:1008900002F04AFA4FF48071934802F045FA2021A1
:1008A000914802F043FA40218F4802F03DFA80213E
:1008B0008D4802F039FA1CBD00B585B00121042035
:1008C00002F054FC02220621894802F03CFA02227E
:1008D0000721874802F037FA02220821844802F0F3
:1008E00032FA02220921824802F02DFA4FF4707088
:1008F000039002208DF810008DF8110000208DF873
:10090000120001208DF8130003A9794802F090F934
:100910000121022002F073FC0320ADF8000000204A
:10092000ADF8020045F2072001900020ADF8080064
:100930006946704803F05BF860206F490880012029
:1009400048800020886088816A4803F0E5F8082123
:10095000684803F06EFA60206849088001204880EA
:10096000002088608881634803F00FF908216148FE
:1009700003F068FA60206249088001204880002066
:10098000886088815B4803F04DF90821594803F0DD
:1009900066FA60205B49088001204880002088605A
:1009A0008881544803F0A4F90821524803F060FA02
:1009B0000121504803F086F801214E4803F0A0F8C9
:1009C00005B000BD2DE9F0412DED028B07460C4628
:1009D00015461E46002F0ADB4FF40061434802F023
:1009E000A5F94FF48051414802F09EF909E04FF417
:1009F00080513E4802F09AF94FF400613B4802F002
:100A000093F9002C0ADB4FF40071374802F08EF99D
:100A10004FF40071354802F087F909E04FF4007196
:100A2000324802F083F94FF400712F4802F07CF94C
:100A3000002D09DB4FF480412C4802F077F910219A
:100A4000294802F071F908E01021274802F06EF9F8
:100A50004FF48041254802F067F9002E08DB202181
:100A6000214802F063F940211F4802F05DF907E0D8
:100A700040211D4802F05AF920211B4802F054F988
:100A8000384605F040FC21F0004105F00FFC1A4902
:100A90008860184803F040F8204605F034FC21F047
:100AA000004105F003FC15498860124803F06DF819
:100AB000284605F028FC21F0004105F0F7FB10491D
:100AC00088600C4803F0AEF8304605F01CFC21F0BD
:100AD000004105F0EBFB0B498860064803F008F97C
:100AE000BDEC028BBDE8F08100040240001802401A
:100AF0000008024000040040580600206C06002058
:100B0000800600209406002000B585B0F648F7491D
:100B1000C8600121084602F072FB0121022002F0A8
:100B200025FB0121084602F021FB01220F21F0489C
:100B300002F009F901220321EE4802F004F903A8AA
:100B400002F0BEF802208DF8100001208DF812008E
:100B500003208DF811004FF40040039001208DF820
:100B6000130003A9E24802F063F803A802F0A8F812
:100B700002208DF8100001208DF8120003208DF85E
:100B800011000820039001208DF8130003A9D94813
:100B900002F04EF80020ADF800004FF6FF70019013
:100BA0000020ADF80800ADF8020069464FF0804023
:100BB00002F01DFF00231A4603214FF0804003F08E
:100BC0008AFC00214FF0804002F05AFF0121880783
:100BD00002F096FF0020C449086005B000BD00B5D2
:100BE00085B0C548C14908600121042002F007FB17
:100BF0000121082002F0BAFA02220C21BF4802F0BB
:100C0000A2F802220D21BD4802F09DF803A802F0CF
:100C100057F802208DF8100001208DF812000320F3
:100C20008DF811000003039001208DF8130003A933
:100C3000B24801F0FDFF0020ADF800004FF6FF7054
:100C400001900020ADF80800ADF802006946AC48FC
:100C500002F0CDFE00231A460321A94803F03BFC15
:100C60000021A74802F00CFF0121A54802F048FF2F
:100C70000020A149086005B000BD00B585B0A148BD
:100C80009A4948600121082002F0B9FA012108467A
:100C900002F06CFA02220021954802F054F8022278
:100CA0000121934802F04FF803A802F009F802204E
:100CB0008DF8100001208DF8120003208DF811002E
:100CC000039001208DF8130003A9894801F0B0FFBB
:100CD0000020ADF800004FF6FF7001900020ADF845
:100CE0000800ADF802006946874802F080FE002047
:100CF0008449086000231A460321834803F0EBFB74
:100D00000021814802F0BCFE01217F4802F0F8FE7C
:100D100005B000BD00B585B07C48744988600121EC
:100D2000084602F07DFA0121102002F01FFA01228C
:100D30000921774802F007F801220B21744802F0DC
:100D400002F803A801F0BCFF02208DF8100001207A
:100D50008DF8120003208DF811004FF420600390ED
:100D600001208DF8130003A9694801F061FF0020FC
:100D7000ADF800004FF6FF7001900020ADF80800BC
:100D8000ADF802006946634802F031FE00231A46BE
:100D90000321604803F09FFB00215E4802F070FED3
:100DA00001215C4802F0ACFE00205849086005B003
:100DB00000BD70B54FF4807001F0A0FE30B34FF469
:100DC00080514E4801F096FF04464FF400514B48C5
:100DD00001F090FF054650480078684020B1464831
:100DE0000068401C444908604C480078604020B1CD
:100DF00041480068401E4049086047480470474821
:100E000005704FF4807001F084FE2BE04FF4007009
:100E100001F074FE30B34FF48051384801F06AFF9E
:100E200004464FF40051354801F064FF05463A4846
:100E30000078684020B130480068401C2E490860A6
:100E400036480078604020B12B480068401E2A498F
:100E5000086031480470314805704FF4007001F0AB
:100E600058FE00BF70BD10B5274802F00DFE04B259
:100E7000244804600021244802F002FE10BD10B591
:100E80001F4802F001FE04B21B48046000211C4808
:100E900002F0F6FD10BD10B51E4802F0F5FD04B2DB
:100EA0001A48046000211B4802F0EAFD10BD10B58D
:100EB0004FF0804002F0E8FD04B20B4804600021CE
:100EC0004FF0804002F0DCFD10BD014611B90A4828
:100ED00000687047012902D10A480068F9E7022931
:100EE0001ED10A480068F4E720000020A806002070
:100EF000000002400004024018000020000C0240E4
:100F00000008004014000020000C00401C000020DD
:100F100000100240000001402400002025000020B5
:100F200008480068D5E710B504461CB900200649FA
:100F3000086006E00020054908600021044802F02E
:100F40009FFD10BD2000002018000020140000208C
:100F5000000C0040F9480078704700B587B00121C7
:100F6000084602F003F90121080302F059F90121B2
:100F7000080302F0FFF905221146F14801F0E3FEF3
:100F800005220721EE4801F0DEFE402000900020FF
:100F90008DF8060001208DF8040000208DF8070070
:100FA00001208DF805006946E54801F041FE10205A
:100FB000009000208DF8060001208DF8040000202C
:100FC0008DF8070001208DF805006946DD4801F025
:100FD0002FFEA020009000208DF8060002208DF842
:100FE000040000208DF8070002208DF805006946F6
:100FF000D34801F01DFE1020009000208DF806005F
:1010000001208DF8040000208DF8070002208DF8E3
:1010100005006946CA4801F00BFE0020ADF8080043
:101020004FF48270ADF80A000020ADF80C000220E9
:10103000ADF80E000120ADF810004002ADF812002E
:101040000820ADF814000020ADF8160002A9BE4833
:1010500002F02CFA0121BC4802F022FB0021BA4820
:1010600002F0A1FB0021B84802F058FB07B000BD18
:1010700010B504461021B24801F058FE1021B148C5
:1010800001F054FE00BF0221AF4802F0D3FB00285C
:10109000F9D02146AC4802F084FB00BF0121AA48E8
:1010A00002F0C8FB0028F9D0A74802F077FB102116
:1010B000A34801F039FE10BD10B504461021A04828
:1010C00001F034FE10219F4801F02EFE00BF0221E6
:1010D0009D4802F0AFFB0028F9D021469A4802F063
:1010E00060FB00BF0121984802F0A4FB0028F9D062
:1010F000954802F053FB1021914801F015FE10BDF8
:1011000010B50120FFF7B4FF0A2000F098FF11206E
:10111000FFF7AEFF782000F092FFB120FFF7A8FFA5
:101120000120FFF7C9FF2C20FFF7C6FF2D20FFF796
:10113000C3FFB220FFF79CFF0120FFF7BDFF2C206B
:10114000FFF7BAFF2D20FFF7B7FFB320FFF790FF9F
:101150000120FFF7B1FF2C20FFF7AEFF2D20FFF796
:10116000ABFF0120FFF7A8FF2C20FFF7A5FF2D20E4
:10117000FFF7A2FFB420FFF77BFF0720FFF79CFFDC
:10118000C020FFF775FFA220FFF796FF0220FFF7B0
:1011900093FF8420FFF790FFC120FFF769FFC52070
:1011A000FFF78AFFC220FFF763FF0A20FFF784FFE3
:1011B0000020FFF781FFC320FFF75AFF8A20FFF7C7
:1011C0007BFF2A20FFF778FFC420FFF751FF8A201A
:1011D000FFF772FFEE20FFF76FFFC520FFF748FF14
:1011E0000E20FFF769FF3620FFF742FFC820FFF708
:1011F00063FFE020FFF73CFF0220FFF75DFF1C20AC
:10120000FFF75AFF0720FFF757FF1220FFF754FFA1
:101210003720FFF751FF3220FFF74EFF2920FFF75D
:101220004BFF2D20FFF748FF2920FFF745FF252022
:10123000FFF742FF2B20FFF73FFF3920FFF73CFF6E
:101240000020FFF739FF0120FFF736FF0320FFF7EB
:1012500033FF1020FFF730FFE120FFF709FF0320E5
:10126000FFF72AFF1D20FFF727FF0720FFF724FFC6
:101270000620FFF721FF2E20FFF71EFF2C20FFF78F
:101280001BFF2920FFF718FF2D20FFF715FF2E2049
:10129000FFF712FF2E20FFF70FFF3720FFF70CFF9D
:1012A0003F20FFF709FF0020FFF706FF0020FFF7B0
:1012B00003FF0220FFF700FF1020FFF7FDFE2A20AA
:1012C000FFF7D6FE0020FFF7F7FE0020FFF7F4FE41
:1012D0000020FFF7F1FE7F20FFF7EEFE2B20FFF747
:1012E000C7FE0020FFF7E8FE0020FFF7E5FE002024
:1012F000FFF7E2FE9F20FFF7DFFE3A20FFF7B8FE80
:101300000520FFF7D9FE2920FFF7B2FE0A2000F0E2
:1013100096FE10BD10B500200C4908704021084809
:1013200001F004FD642000F08AFE4021044801F031
:10133000FBFC642000F083FE10BD00002C060020A2
:10134000000002400008024000300140300600204A
:1013500070B504462A20FFF78BFE0020FFF7ACFE95
:101360000220FFF7A9FE0020FFF7A6FE8120FFF76D
:10137000A3FE2B20FFF77CFE0020FFF79DFE01203F
:10138000FFF79AFE0020FFF797FEA020FFF794FEDC
:101390002C20FFF76DFE002507E02012FFF78CFEE2
:1013A000E0B2FFF789FE681C85B2B5F5A04FF4DB0B
:1013B00070BDF94908807047F84908807047F849BE
:1013C000088070472DE9F04704460F46904699463D
:1013D0000020F4490870F4490870FFF7BEFDFFF7DC
:1013E00099FFFFF78DFE2C20FFF742FE3846FFF7EE
:1013F000E6FF4046FFF7E0FF4846FFF7DAFF3846D2
:10140000FFF7A6FFE9480470204604EBD0714910AD
:10141000A4EB410161B1A020E54908708020E549B5
:1014200008701420E44908700820E44908700BE0B3
:10143000A020E04908708020DD4908701020DE49B6
:1014400008700A20DD490870002034E000252EE0F5
:10145000002628E0202100EBC00202EB0012D84B4E
:1014600003EBC20205EB850302EB4302915500EB4F
:10147000C00101EB0011D34A02EB011105EB85021B
:1014800001EB820121F8168000EBC00101EB001195
:10149000CD4A02EB011105EB850201EB820121F837
:1014A0001670711CCEB20A2ED4DD691CCDB2142D7B
:1014B000CEDD411CC8B20228C8DBBDE8F0870120A0
:1014C000C249087070470020C0490870704770B565
:1014D00004460D462A20FFF7CBFD0020FFF7ECFD68
:1014E000A11CC8B2FFF7E8FD0020FFF7E5FDE11CF5
:1014F000C8B2FFF7E1FD2B20FFF7BAFD0020FFF790
:10150000DBFD691CC8B2FFF7D7FD0020FFF7D4FD53
:10151000A91CC8B2FFF7D0FD2C20FFF7A9FD70BDB4
:101520002DE9F04104460D4616461F462A20FFF7D6
:101530009FFD0020FFF7C0FDA11CC8B2FFF7BCFD56
:101540000020FFF7B9FDB11CC8B2FFF7B5FD2B2095
:10155000FFF78EFD0020FFF7AFFD691CC8B2FFF753
:10156000ABFD0020FFF7A8FD791CC8B2FFF7A4FD72
:101570002C20FFF77DFDBDE8F08170B5002416E05A
:10158000002510E0202004EB84018D4A02EB41018C
:101590004855202104EB84028948C83000EB420002
:1015A0004155681CC5B20A2DECDD601CC4B2142C78
:1015B000E6DD7B480088FFF7CBFE70BD10B5014625
:1015C000002032E02022784B1B7803EBC30404EBAD
:1015D00003137B4C04EBC30300EB800403EB4403D5
:1015E0005A546E4A1288704B1B7803EBC30404EB09
:1015F0000313744C04EB031300EB800403EB84032C
:1016000023F81120664A1288674B1B7803EBC3044A
:1016100004EB03136C4C04EB031300EB800403EBAB
:10162000840323F81120421CD0B21428CADB10BD59
:1016300010B500205B490870002404E02046FFF745
:10164000BDFF601CC4B20A2CF8DB10BD70B50446A7
:101650000D4616465548007830B1012809D00228B9
:101660000ED003281CD114E029462046FFF72FFF97
:1016700016E0C5F17F01C8B22146FFF728FF0FE051
:10168000C5F19F02D1B2C4F17F02D0B2FFF71FFFB4
:1016900006E0C4F19F00C1B22846FFF718FF00BF63
:1016A00000BF3012FFF708FDF0B2FFF705FD70BD77
:1016B000F0B502463C48007800EBC00606EB00108F
:1016C0003F4E06EBC00002EB820600EB4600465C94
:1016D00035480078451C05EBD5704010A5EB40005F
:1016E00000EBC00707EB0010354F07EBC00002EB23
:1016F000820700EB4700405C86424BD12A480078C5
:1017000000EBC00606EB00102E4E06EB001002EBBD
:10171000820600EB860030F8116023480078441CF4
:1017200004EBD4704010A4EB400000EBC00707EBC3
:101730000010244F07EB001002EB820700EB87003C
:1017400030F81100864225D11748007800EBC0061A
:1017500006EB00101C4E06EB001002EB820600EBBD
:10176000860030F8116010480078431C03EBD370FA
:101770004010A3EB400000EBC00707EB0010124F36
:1017800007EB001002EB820700EB870030F8110036
:1017900086421DD00120F0BD2A0600202806002028
:1017A0002606002030060020330600202C060020EC
:1017B0002E0600202F0600203106002032060020D1
:1017C000B806002048080020680B00202D060020E5
:1017D0000020F0BD0FB4F0B5C1B005460E4600279D
:1017E000002449A8009001A8009A489903F0CEF877
:1017F0000020009001AC54E020785B2802D1012742
:10180000641C4EE020785D2802D10027641C48E06B
:1018100020780D2802D020780A2801D1641C40E0ED
:10182000FE480078854203DCFD480078864200DDF2
:101830003AE014F8010BFB49097801EBC10202EB15
:101840000111F94A02EBC10105EB850201EB4201EE
:10185000885517B1F548008801E0F5480088F1493E
:10186000097801EBC10202EB0111F24A02EB01110E
:1018700005EB850201EB820121F81600EE48008895
:10188000E849097801EBC10202EB0111EB4A02EBD6
:10189000011105EB850201EB820121F81600681C9D
:1018A000C5B220780028A7D100BF41B0F0BC5DF8D8
:1018B00014FB0FB470B5C2B000260024002547A861
:1018C000019002A8019A469903F060F80020019067
:1018D000DB480078D2490978884202DD0020D849E7
:1018E000087002AC5CE020785B2802D10126641C01
:1018F00056E020785D2802D10026641C50E0207854
:101900000D2802D020780A2801D1641C48E0C34881
:101910000078854205DCCA480078C14909788842C8
:1019200000DD40E014F8010BBE49097801EBC1026B
:1019300002EB0111BC4A02EBC10105EB850201EB90
:101940004201BF4A1278885416B1B848008801E0B5
:10195000B7480088B349097801EBC10202EB0111D5
:10196000B44A02EB011105EB850201EB8201B44A96
:10197000127821F81200B0480088AA49097801EBD2
:10198000C10202EB0111AD4A02EB011105EB850228
:1019900001EB8201AA4A127821F81200681CC5B234
:1019A000207800289FD100BFA54800789C4909787D
:1019B000884201DD002002E0A1480078401CA049D7
:1019C000087042B070BC5DF814FB70472DE9F05F01
:1019D00000269C48007808B9BDE8F09F9A48007836
:1019E00030B1012875D0022874D0032873D116E2D3
:1019F0000025A0E0002499E0E9B2E0B2FFF758FE2C
:101A0000002869D0012605E0A019102800DB0BE0B2
:101A1000701C06B2A019102806DAE9B2A219D0B2D9
:101A2000FFF746FE0028EFD100BF05F1010C4FF093
:101A3000010ECEEB0C1C0CF0FF0304EB060CCEEBFE
:101A4000CC0C0CF0FF024FEA057C4FEA1C614FEA18
:101A5000C46C4FEA1C60FFF763FDAA464FF0000814
:101A60005CE0002753E0F91707EB517104EBE1014B
:101A70000FFA81F96B49097801EBC10202EB011100
:101A8000694A02EBC10109EB890201EB420111F83D
:101A90000A10203908EB01116C4A515C3846FA17DC
:101AA00007EB5272D210A7EBC20380221A411140F9
:101AB00099B15C49097801EBC10202EB01115D4A61
:101AC00002EB011109EB890201EB820131F81A10D6
:101AD00012E034E0F7E04CE226E05249097801EBED
:101AE000C10202EB0111554A02EB011109EB890217
:101AF00001EB820131F81A108B464FEA2B20FFF7D9
:101B0000DBFA0BF0FF00FFF7D7FA781C07B2B7EB50
:101B1000C60FA8DB08F101000FFA80F8B8F1100F2A
:101B20009FDB701E204404B2601C04B2102CFFF630
:101B300063AF681C05B20A2DFFF65CAF19E2002402
:101B4000BDE00725B6E0E9B2E0B2FFF7B1FD00283D
:101B500063D0012604E0A81B00D50AE0701C06B281
:101B6000A81B06D4AA1BD1B2E0B2FFF7A1FD002842
:101B7000F1D100BF04F1010C4FF0010ECEEBCC0C03
:101B80000CF0FF03C5F1070CB444CEEB0C1C0CF0B9
:101B9000FF024FEAC46C4FEA1C61C5F1070C4FEA23
:101BA0000C7C4FEA1C60FFF7BBFCA14600277AE0E3
:101BB0004FF0000872E04FEAE87108EB1171A5EBF5
:101BC00021110FFA81FA1749097801EBC10202EBE2
:101BD0000111154A02EBC10109EB890201EB420137
:101BE00011F80A102039102202EB011140464FEA89
:101BF000E87208EB12721211A8EB0212891A491E40
:101C0000124A515C80223A41114059B30549097882
:101C100001EBC10202EB01111AE049E0310600209C
:101C20003206002033060020B80600202A060020D5
:101C3000280600204808002026060020680B002007
:101C4000300600202D0600202C0600202600002053
:101C5000CE4A02EB011109EB890201EB820131F856
:101C60001A100EE0CA49097801EBC10202EB01111A
:101C7000C84A02EB011109EB890201EB820131F83C
:101C80001A108B464FEA2B20FFF716FA0BF0FF00D5
:101C9000FFF712FA08F101000FFA80F8B8EB061FFF
:101CA00089DB781C07B2082F82DB701E281A05B268
:101CB000681E05B2002DBFF646AF601C04B2142C9E
:101CC000FFF63FAF55E10925A5E00F249EE0E9B2FC
:101CD000E0B2FFF7EDFC00287ED0012604E0A01B57
:101CE00000D50AE0701C06B2A01B06D4E9B2A21B04
:101CF000D0B2FFF7DDFC0028F1D100BFC5F10A0C1E
:101D00004FF0010ECEEB0C1C0CF0FF03C4F10F0CD6
:101D1000B444CEEBCC0C0CF0FF02C5F1090C4FEA39
:101D20000C7C4FEA1C61C4F10F0C4FEACC6C4FEAFB
:101D30001C60FFF7F5FBAA464FF000085EE00027A5
:101D400055E0F91707EB5171A4EBE1010FFA81F9A6
:101D50008F49097801EBC10202EB01118E4A02EBB7
:101D6000C10109EB890201EB420111F80A10203987
:101D7000C8F10F0202EB0111884A515C3846FA178C
:101D800007EB5272D210A7EBC202C2F10702802306
:101D90001341194079B17E49097801EBC10202EB88
:101DA00001117A4A02EB011109EB890201EB820170
:101DB00031F81A100EE07649097801EBC10202EB06
:101DC0000111744A02EB011109EB890201EB820156
:101DD00031F81A108B4600E016E04FEA2B20FFF78F
:101DE0006BF90BF0FF00FFF767F9781C07B2B7EB50
:101DF000C60FA6DB08F101000FFA80F8B8F1100F4A
:101E00009DDB701E201A04B2601E04B2002CBFF6C7
:101E10005EAF681E05B2002DBFF657AFA9E01324D0
:101E2000A3E000259CE0E9B2E0B2FFF741FC002806
:101E30007DD0012605E0A819082800DB0BE0701C06
:101E400006B2A819082806DAAA19D1B2E0B2FFF73B
:101E50002FFC0028EFD100BFC4F1140C4FF0010E8D
:101E6000CEEBCC0C0CF0FF0305EB060CCEEB0C1C00
:101E70000CF0FF02C4F1130C4FEACC6C4FEA1C616A
:101E80004FEA057C4FEA1C60FFF74AFBA14600279A
:101E90005FE04FF0000857E04FEAE87108EB11717E
:101EA00005EB21110FFA81FA40464FEAE87108EB81
:101EB00011710911A8EB01123549097801EBC10331
:101EC00003EB0111344B03EBC10109EB890301EB77
:101ED000430111F80A10203902EB01112F4A515C1D
:101EE000C7F1070280231341194079B128490978C5
:101EF00001EBC10202EB0111244A02EB011109EBD3
:101F0000890201EB820131F81A100EE020490978AC
:101F100001EBC10202EB01111E4A02EB011109EBB8
:101F2000890201EB820131F81A108B4600E015E0BE
:101F30004FEA2B20FFF7C0F80BF0FF00FFF7BCF8CB
:101F400008F101000FFA80F8B8EB061FA4DB781C3B
:101F500007B2082F9DDB701E284405B2681C05B22D
:101F6000082DFFF660AF601E04B2002CBFF659AF1B
:101F700000BF00BF06490978481C00EBD07149102A
:101F8000A0EB4101024A117000BF25E5480800207E
:101F900033060020680B0020B80600202600002031
:101FA0001FB50121102001F02AF90020ADF806002C
:101FB0004FF40070ADF80C005320ADF8040040F26F
:101FC000E730029001A9244801F011FD01221146D9
:101FD000214802F0ADF936208DF8000000208DF880
:101FE000010005208DF8020001208DF803006846ED
:101FF00000F0D1FA0121184801F082FD00201749B4
:1020000008601FBD10B50121134802F0A8F940B1C6
:1020100012480068401C1149086001210E4802F076
:10202000AFF910BD08B5C0EBC0018900009100E018
:1020300000BF00994A1E00920029F9D108BD08B5D9
:1020400046F660514143009100E000BF00994A1EEE
:1020500000920029F9D108BD001000403806002088
:10206000B0EE401AB4EEE01AF1EE10FA09D8F1EE33
:10207000601AB4EEE11AF1EE10FA02DBB0EE410A9A
:1020800009E0B4EEE01AF1EE10FA02DDB0EE600AFB
:1020900001E0B1EE600A704770B52DED028B054688
:1020A0000E461446A81B00EE100AB8EEC00AB0EEA9
:1020B000408A94ED000AB8EEC00A30EE080ABDEE80
:1020C000C00A84ED000AD4ED000AF8EEE00AB0EE92
:1020D000600ADFEDAE0AFFF7C3FFBDEEC00A84ED74
:1020E000000A94ED000AB8EEC00AD4ED020A20EE10
:1020F000200AD4ED010A08EE200AF0EE408ADFED56
:10210000A40AB0EE680AFFF7ABFFBDEEC00A10EEFE
:10211000100A00B2BDEC028B70BD00209D49C86161
:1021200000219C4801624162816270472DE9F041C3
:102130002DED028B86B004460D4617461E46954887
:1021400090F82C00072833D2DFE800F00412202E8C
:102150002F3031009FED900A8E4880ED010A9FEDEF
:102160008E0A80ED000A9FED8C0A80ED020A20E0C5
:102170009FED8A0A874880ED010A9FED870A80ED6E
:10218000000A9FED850A80ED020A12E09FED840AA5
:10219000804880ED010A9FED800A80ED000A9FEDE6
:1021A0007E0A80ED020A04E003E002E001E000E0C4
:1021B00000BF00BF774890ED010AD0ED000A30EE75
:1021C000600AD0ED020A30EE200A80ED030A90ED9D
:1021D000010AD0ED000A30EE200AD0ED020A30EEFE
:1021E000600A80ED040A90ED010AD0ED000A30EE9D
:1021F000600AD0ED020A30EE600A80ED050A90ED2B
:10220000010AD0ED000A30EE200AD0ED020A30EECD
:10221000200A80ED060AFEF732FEFEF724FEFEF7E6
:102220003AFEFEF744FE5FA101A8226802F0C0FB5F
:1022300001AA07210820FFF7CDFA94ED010A10EE5C
:10224000101A084604F0CAF841EC180B53EC182B8E
:1022500055A101A802F0ACFB01AA05210820FFF757
:10226000B9FA94ED020A10EE101A084604F0B6F816
:1022700041EC180B53EC182B4BA101A802F098FB72
:1022800001AA06210820FFF7A5FA0020FEF71DFE8F
:102290008046404991ED030ABDEEC00A10EE100AD7
:1022A00022464146FFF7F8FE3A49C8610120FEF791
:1022B0000CFE8046374991ED040ABDEEC00A10EECF
:1022C000100A2A464146FFF7E7FE3249086202201B
:1022D000FEF7FBFD80462F4991ED050ABDEEC00AD1
:1022E00010EE100A3A464146FFF7D6FE29494862E9
:1022F0000320FEF7EAFD8046264991ED060ABDEE71
:10230000C00A10EE100A32464146FFF7C5FE2149C9
:102310008862084623A1C26901A802F049FB01AA0C
:1023200005210120FFF756FA1A481EA1026A01A8EA
:1023300002F03EFB01AA06210120FFF74BFA1548E7
:1023400018A1426A01A802F033FB01AA072101206B
:10235000FFF740FA0F4813A1826A01A802F028FB98
:1023600001AA08210120FFF735FADFF828C0DCF8C0
:102370002830DCF82420DCF82010DCF81C00FEF704
:1023800021FB06B0BDEC028BBDE8F08100401C478C
:1023900000409C46880E0020000000000000C8425B
:1023A0000000C8C225640000252E31660000000030
:1023B00000B587B00121880500F0D8FE012108464C
:1023C00000F02EFF07220921594800F0BCFC07222B
:1023D0000A21574800F0B7FC4FF4C0600590022076
:1023E0008DF818008DF8180000208DF81A000120D3
:1023F0008DF81B0003208DF8190005A94C4800F04A
:1024000017FC0121102000F00BFF4FF41650019033
:102410000020ADF80800ADF80A00ADF80C00ADF8EA
:1024200010000C20ADF80E0001A9424802F0EBF8B4
:102430000121404802F06FF9012240213D4802F09D
:1024400017FA07B000BD00B58FB04FF000600090E4
:10245000C01409903748001D0190374802900020B1
:10246000039008200490002005904FF480600690AF
:102470000020079008904FF480300A9000200B90C5
:1024800003200C9000200D900E9069462B4800F020
:102490008FF90121294800F0C5F90FB000BD10B532
:1024A00027492648483000F01AFAE0B100212348B5
:1024B000483000F0B7F92148483000F0D6F9C0F1B3
:1024C000080000B21F4908801F491C48483000F02E
:1024D00022FA08211948483000F0C5F901211748AF
:1024E000483000F09FF910BD10B540F2244111486A
:1024F00002F002FAD0B10021104800F093F90D4823
:10250000048884880D4800F0B0F9C0F1080000B2DA
:102510000C4908800C49094800F0FDF908210748DA
:1025200000F0A1F90121054800F07CF910BD000080
:1025300000000240001001403C06002040640240C0
:102540000008002044060020400F00200948804772
:1025500009480047FEE7FEE7FEE7FEE7FEE7FEE785
:10256000FEE7FEE7FEE7FEE704480549054A064B9D
:10257000704700008106000889010008180F00203C
:1025800018150020181100201811002032490143AD
:10259000324A1160704770B5002100230F22C478C1
:1025A0001CB32E4C246804F4E064C4F5E064C4F366
:1025B0000721C1F10404E3B20A4144789C40E1B22E
:1025C0008478144021430C07210E254C0578615571
:1025D000047804F01F050124AC4005786D11AD00AE
:1025E00005F1E025C5F8004109E0047804F01F0575
:1025F0000124AC401B4D0678761145F8264070BD8D
:10260000194A0A400243154B1B1F1A60704739B123
:10261000124A121D12680243104B1B1D1A6006E07D
:102620000E4A121D126882430C4B1B1D1A60704724
:10263000042808D14FF0E021096941F004014FF06E
:10264000E022116107E04FF0E021096921F0040167
:102650004FF0E022116170470000FA050CED00E038
:1026600000E400E080E100E080FFFF1F016821F04E
:10267000010101600021016041608160C160016170
:1026800021214161DB49884204D13D21D94A103AD8
:1026900091608CE0D7491831884205D14FF47461BC
:1026A000D44A103A916082E0D2493031884205D153
:1026B0004FF47411CF4A103A916078E0CD49483117
:1026C000884205D14FF07461CA4A103A91606EE0B9
:1026D000C8496031884204D1C749C64A103AD1601E
:1026E00065E0C4497831884204D1C449C14A103AEE
:1026F000D1605CE0BF499031884204D1C049BD4AF5
:10270000103AD16053E0BB49A831884205D14FF05F
:102710003D51B84A103AD16049E0BA49884204D1E3
:102720003D21B84A083A116041E0B6491831884263
:1027300005D14FF47461B34A083A116037E0B149EA
:102740003031884205D14FF47411AE4A083A116015
:102750002DE0AC494831884205D14FF07461A94A57
:10276000083A116023E0A7496031884204D1A249A8
:10277000A44A121F11601AE0A2497831884204D19C
:102780009E49A04A121F116011E09E499031884273
:1027900004D19B499B4A121F116008E09949A83156
:1027A000884204D14FF03D51964A121F1160704784
:1027B00010B500220268944B1A40CC680B68234382
:1027C0004C6923438C692343CC6923430C6A23431C
:1027D0004C6A23438C6A23434C6B23438C6B234307
:1027E0001A430260426922F00702D1E90B34234305
:1027F0001A4342610B6943604B6883608B68C36016
:1028000010BD0021016041608160C16001614161D2
:102810008161C161016241628162C16201634163A0
:102820008163704721B1026842F00102026003E057
:10283000026822F001020260704721B1026842F48E
:102840000042026003E0026822F400420260704726
:1028500021B1026842F02002026003E0026822F027
:10286000200202607047416070470146486880B2AC
:10287000704722B1036843F40023036003E0036858
:1028800023F4002303600161704721B1026842F420
:102890008022026003E0026822F480220260704716
:1028A0000AB1016100E0C1607047014600200A687A
:1028B00002F400220AB1012000E000207047014626
:1028C00000200A6802F001020AB1012000E00020A5
:1028D0007047014600204A6902F03800704730B561
:1028E00003460A4600200024464DAB4202D241492D
:1028F000103901E04349103902F000550DB14C6820
:1029000000E00C68414D2C4004EA02050DB10120A5
:1029100000E0002030BD02463A4B9A4202D23548D0
:10292000103801E03748103801F000531BB1374B25
:102930000B40C36002E0354B0B408360704710B51D
:1029400001F080034BB122B1436943F0800343613E
:1029500003E0436923F08003436180290BD02AB14F
:10296000036801F01E042343036004E0036801F0E0
:102970001E04A343036010BD70B50246002000246E
:102980000025204EB24202D21A4B103B01E01D4BF3
:10299000103B1F4E0E4036B11E2606EAD1241668A3
:1029A00006EA040502E0566906F0800501F00056CB
:1029B0000EB15C6800E01C68144E344004EA010665
:1029C00016B10DB1012000E0002070BD02460D4B94
:1029D0009A4202D20748103801E00A48103801F044
:1029E00000531BB1094B0B40C36002E0074B0B4087
:1029F00083607047106002403D000020400F0020BF
:102A000000003D20106402403F801CF07D0F7D0FD0
:102A10003C0F3C0F002041490860091D0860091D5A
:102A20000860091D08603E483C4914310860704741
:102A300000213A498279002A3AD00A46126803688E
:102A40009A430B461A600A1D126803689A430B1DCD
:102A50001A60027911440A6803681A430A602F4A0F
:102A60000832126803689A432C4B08331A601A1D07
:102A7000126803689A43294B0C331A604279102A72
:102A80000ED11A1F126803681A43244B08331A60C8
:102A90001A1D126803681A43204B0C331A600DE0AC
:102AA0001E49427911440A6803681A430A6005E026
:102AB000027911440A6803689A430A60704700214A
:102AC000016001710C21417100218171704713492E
:102AD000103109680143114A1032116070470146F4
:102AE00000200E4A143212680A400AB1012000E0A8
:102AF00000207047094914310860704701460020E2
:102B0000064A143212680A400AB1012000E000208F
:102B1000704702491431086070470000003C0140D2
:102B2000FFFF7F0010B504469848844208D1012178
:102B3000084600F086FB0021012000F082FB76E0D1
:102B40009348844208D10121022000F07AFB002141
:102B5000022000F076FB6AE08E48844208D1012111
:102B6000042000F06EFB0021042000F06AFB5EE010
:102B70008948844208D10121082000F062FB00212D
:102B8000082000F05EFB52E08448844208D1012115
:102B9000102000F056FB0021102000F052FB46E010
:102BA0007F48844208D10121202000F04AFB002107
:102BB000202000F046FB3AE07A48844208D1012107
:102BC000402000F03EFB0021402000F03AFB2EE0C8
:102BD0007548844208D10121802000F032FB002199
:102BE000802000F02EFB22E07048844208D10121B1
:102BF000801500F026FB0021A01500F022FB16E056
:102C00006B48844208D10121401500F01AFB0021D5
:102C1000601500F016FB0AE06648844207D10121E6
:102C2000001500F00EFB0021201500F00AFB10BD7E
:102C3000F0B50A4600210023002400BF3DE0012535
:102C400005FA01F3156805EA03049C4234D10568CE
:102C50004F000326BE40B543056015794E00B540D0
:102C60000668354305601579012D02D01579022DCE
:102C700016D185684F000326BE40B543856055795F
:102C80004E00B540866835438560456801268E4014
:102C9000B5434560456896798E40B6B23543456088
:102CA000C5684F000326BE40B543C560D5794E00C8
:102CB000B540C6683543C560491C1029BFD3F0BD77
:102CC0004FF6FF7101600021017141718171C17185
:102CD000704708B54FF480320092009A0A43009280
:102CE000009AC261C161009AC261C2690092C26960
:102CF000009208BD0246002013690B400BB1012071
:102D000000E0002070470146086980B27047024623
:102D1000002053690B400BB1012000E000207047F8
:102D20000146486980B2704701837047418370470C
:102D30000AB1018300E041837047416170474269F5
:102D40004A4042617047F0B5002300244D07ED0E64
:102D500002FA05F3CE1000F1200555F826504E0773
:102D6000F70E0F26BE40B543CF1000F1200646F8FF
:102D70002750CE1000F1200555F8265045EA0304EF
:102D8000CE1000F1200545F82640F0BD00000240BD
:102D90000004024000080240000C02400010024003
:102DA0000014024000180240001C024000200240B3
:102DB0000024024000280240F948006840F0010069
:102DC000F74908600020F64908310860F4480068B7
:102DD000F4490840F2490860F348091D0860F348C7
:102DE000EF4984310860F0481038091D0860EC484C
:102DF000006820F48020EA4908600020E8490C318E
:102E00000860E7498C31086070470021E44A921C51
:102E1000117011460870704710B50146002200235A
:102E200000204A11012A02D1DD4C236808E0022A61
:102E300003D1DB4C7034236802E0D94C743423682E
:102E400001F01F02012494401C400CB1012000E05D
:102E5000002010BD38B5002000900024002500BFE0
:102E60003120FFF7D9FF05460098401C00900098DC
:102E7000B0F5A04F01D0002DF2D03120FFF7CCFFEC
:102E800008B1012400E00024204638BD014600209E
:102E9000C34A106820F0F80040EAC1001060704793
:102EA000C349086070470021BD4A7032117011702B
:102EB000012802D004280AD104E00121B84A703266
:102EC000117005E00521B64A7032117000E000BFB4
:102ED00000BF7047B7490860704770B5049C41EA6D
:102EE00082150126C6EB530645EA0645054345EA29
:102EF0000465AB4E361D356070BDAD490866704740
:102F0000820142EA0172A64B84331A607047A849D5
:102F10008866704710B5830143EA016343EA027390
:102F20009F4C8834236010BDA14908677047A049B1
:102F3000C864704702460020994B0833186820F097
:102F4000EC6042EA01031843954B08331860704760
:102F500002460020924B0833186820F0784042EA7D
:102F6000010318438E4B0833186070470146002058
:102F70008B4A0832106820F0030008431060704745
:102F800087480830006800F00C00704701460020B8
:102F9000834A0832106820F0F00008431060704740
:102FA000014600207E4A0832106820F4E0500843B1
:102FB0001060704701460020794A0832106820F4FA
:102FC000604040EAC10010607047F0B50021002267
:102FD0000024022500260223714F08373F6807F0BE
:102FE0000C0121B1042905D0082937D105E0724F21
:102FF000076036E0714F076033E0694F3F1D3F685F
:10300000C7F38056664F3F1D3F6807F03F036EB120
:103010006A4FB7FBF3F7DFF888C10CF1040CDCF85A
:1030200000C0CCF3881C07FB0CF40CE0624FB7FB2C
:10303000F3F7DFF86CC10CF1040CDCF800C0CCF342
:10304000881C07FB0CF4564F3F1D3F68C7F3014730
:103050007F1C7D00B4FBF5F7076002E0564F076068
:1030600000BF00BF4E4F08373F6807F0F001090965
:10307000534F7A5C0768D7404760494F08373F682D
:1030800007F4E051890A4E4F7A5C4768D740876061
:10309000434F08373F6807F46041490B484F7A5C5B
:1030A0004768D740C760F0BD002100F44072B2F518
:1030B000407F0AD13A4A0832116821F4F811414A96
:1030C00002401143364A08321160354A70321268A4
:1030D000C0F30B031A43324B70331A607047354903
:1030E00044390860704733494039086070473649B1
:1030F0000860704701460020294A8C32106820F091
:103100001F004A1E1043264A8C3210607047014649
:103110000020234A8C32106820F4F8504A1E40EAFE
:1031200002201F4A8C3210607047014600201C4A62
:103130008C32106820F4401008431060704701463C
:103140000020174A8C32106820F4400008431060B9
:10315000704701460020124A8C32106820F440303B
:1031600008431060704719490860704739B10C4A2C
:103170003032126802430A4B30331A6006E0084AC4
:10318000303212688243064B30331A607047F9B10F
:10319000034A343212680243014B34331A601CE094
:1031A00000380240FFFFF6EA103000240030002013
:1031B00000004742800E47420024F40000127A00CB
:1031C00046060020FFFCFF0F5C014742E01147422A
:1031D0008F4A126882438E4B1A60704739B18C4A0D
:1031E000121D126802438A4B1B1D1A6006E0884AB2
:1031F000121D12688243864B1B1D1A60704739B13D
:10320000834A0C3212680243814B0C331A6006E089
:103210007F4A0C32126882437D4B0C331A60704730
:1032200039B17B4A103212680243794B10331A606D
:1032300006E0774A103212688243754B10331A60E9
:10324000704739B1724A243A12680243704B243BEA
:103250001A6006E06E4A243A126882436C4B243BA3
:103260001A60704739B16A4A203A12680243684BC3
:10327000203B1A6006E0664A203A12688243644B9B
:10328000203B1A60704739B1614A1C3A1268024308
:103290005F4B1C3B1A6006E05D4A1C3A1268824391
:1032A0005B4B1C3B1A60704739B1594A143A12689B
:1032B0000243574B143B1A6006E0554A143A126811
:1032C0008243534B143B1A60704739B1504A103A4D
:1032D000126802434E4B103B1A6006E04C4A103A0B
:1032E000126882434A4B103B1A60704739B1484A12
:1032F0001C3212680243464B1C331A6006E0444AF3
:103300001C3212688243424B1C331A60704739B139
:103310003F4A2032126802433D4B20331A6006E0D8
:103320003B4A203212688243394B20331A6070477F
:1033300039B1374A243212680243354B24331A60BC
:1033400006E0334A243212688243314B24331A6038
:10335000704739B12E4A2C32126802432C4B2C3361
:103360001A6006E02A4A2C3212688243284B2C331A
:103370001A60704739B1264A303212680243244B32
:1033800030331A6006E0224A303212688243204B02
:1033900030331A607047012808D11D493C31096853
:1033A00041F008011A4A3C32116007E018493C31EB
:1033B000096821F00801164A3C321160704739B1A2
:1033C000134A273A12780243114B273B1A7006E042
:1033D0000F4A273A127882430D4B273B1A707047E9
:1033E0000B484030006840F0807009494031086067
:1033F000704701460020064A283A12680A400AB17E
:10340000012000E00020704701492639087070470C
:103410003438024010B50446FB48844208D10121EB
:103420008014FFF752FF0021A014FFF74EFF3CE08D
:10343000F648844208D101210014FFF735FF00212E
:103440002014FFF731FF30E0F148844208D1012118
:10345000C013FFF729FF0021E013FFF725FF24E049
:10346000EC48844208D101214014FFF72EFF0021CF
:103470006014FFF72AFF18E0E748844209D10121D0
:103480000805FFF722FF00214FF48010FFF71DFF12
:103490000BE0E248844208D101214805FFF715FFFF
:1034A00000214FF40010FFF710FF10BD10B50022EF
:1034B000028802F441520B884C8823438C882343B2
:1034C000CC8823430C8923434C8923438C89234391
:1034D000CC8923431A430280838B4FF2FF7423402D
:1034E00083830B8A038210BD2DE9F04F0025022350
:1034F00000244FF001090022002600279446904640
:10350000B0F81CA04FF2400B0AEA0B0AA0F81CA06E
:103510004FF0020AA0F820A0858BD1F808A0BAF1DC
:10352000020F01D100BF82E0B1F804A0BAF1000F90
:1035300002D14FF0010901E04FF00209DFF8E0A2EB
:10354000DAF800A00AF4000ABAF1000F09D0DFF897
:10355000D0A2DAF800A02AF4000ADFF8C4B2CBF84F
:1035600000A0DFF8BCA20AF17C0ADAF800A0CAF3D6
:10357000881CDFF8ACA20AF17C0ADAF800A0CAF3D2
:103580000278DFF89CA2AAF1040ADAF800A00AF097
:103590003F07DFF88CA2AAF1040ADAF800A00AF4C7
:1035A000800ABAF5800F08D1DFF878A2BAFBF7FAE3
:1035B0000AFB0CFABAFBF8F607E0DFF86CA2BAFBDC
:1035C000F7FA0AFB0CFABAFBF8F6B1F806A0BAF55E
:1035D000007F0ED14FEA162A0AEB8A0A4FEA4A0AFE
:1035E000D1F808B0BAFBFBFA0AF1050A1FFA8AF211
:1035F0000FE04FEA491AB6FBFAFA0AEB8A0A4FEAD9
:103600004A0AD1F808B0BAFBFBFA0AF1050A1FFA18
:103610008AF24FF00A0AB2FBFAF202F00104A2EBBE
:10362000040ACAF34F034FF6FF7A0AEA0424022B76
:1036300001DBFF2B01DD02230024B1F806A04AEADA
:10364000040A4AEA030AA0F820A0B1F804A0B1F8DD
:103650000CB04AEA0B0AB1F802B04AEA0B0AB1F818
:1036600000B04AEA0B0A4AF4006A4AEA0505858373
:10367000BDE8F08F0021018041808180C1800181FF
:1036800041818181C1810721018270470021018030
:1036900041808180C1800221816000218181704749
:1036A00021B1028842F04002028004E002884FF615
:1036B000BF731A400280704721B1828B42F480624E
:1036C000828304E0828B4FF6FF331A408283704777
:1036D00002884FF2FF731A40028002880A43028078
:1036E0007047B1F5804F04D1028842F480420280D5
:1036F00004E002884BF6FF731A40028070474FF6D1
:10370000FF62914204D0028842F48072028004E099
:1037100002884FF6FF631A400280704721B1828809
:1037200042F00402828004E082884FF6FB731A4064
:103730008280704721B1828842F01002828004E0CA
:1037400082884FF6EF731A408280704730B50022AE
:103750000023848B4FF240052C4084830224048490
:10376000828B0C88B4F5007F01D00C8814B94FF41B
:10377000807308E00C88B4F5407F03D00C88B4F562
:10378000807F00D100238C888D892C434D882C4369
:103790001C4344F400642243828330BD014688897F
:1037A00070478181704721B1028842F40052028043
:1037B00004E002884DF6FF731A40028070470188CA
:1037C00041F480510180704702460020012901D058
:1037D000108B00E0908A70470146088A70471AB142
:1037E00083880B43838002E083888B438380704708
:1037F00030B5002400230C110125A540ABB2AAB1BD
:1038000085881D43858014E0003001400038004069
:10381000003C004000340140005001400054014091
:103820000838024000127A000024F40085889D4385
:10383000858030BD0246002013890B400BB101206A
:1038400000E000207047CA4302817047F0B502468D
:10385000002000240023002501F00F070126BE40B0
:10386000B4B20B1101269E40B3B2968806EA030556
:103870001689264016B10DB1012000E00020F0BDF0
:1038800010B5002201F00F040123A3409AB2D343E4
:10389000038110BD10B50446FE48844208D10121C1
:1038A0000846FFF712FD00210120FFF70EFD9DE005
:1038B000B4F1804F08D101210846FFF7F5FC002143
:1038C0000120FFF7F1FC91E0F348844208D1012187
:1038D0000220FFF7E9FC00210220FFF7E5FC85E06C
:1038E000EE48844208D101210420FFF7DDFC0021CD
:1038F0000420FFF7D9FC79E0E948844208D101218E
:103900000820FFF7D1FC00210820FFF7CDFC6DE077
:10391000E448844208D101211020FFF7C5FC0021B2
:103920001020FFF7C1FC61E0DF48844208D101218B
:103930002020FFF7B9FC00212020FFF7B5FC55E05F
:10394000DA48844208D101210220FFF7BEFC0021A1
:103950000220FFF7BAFC49E0D548844209D1012191
:103960000804FFF7B2FC00214FF48030FFF7ADFCF4
:103970003CE0D048844209D101214804FFF7A5FC6E
:1039800000214FF40030FFF7A0FC2FE0CA4884422A
:1039900009D101218804FFF798FC00214FF4802011
:1039A000FFF793FC22E0C548844208D10121402062
:1039B000FFF77AFC00214020FFF776FC16E0C048B4
:1039C000844208D101218020FFF76EFC0021802075
:1039D000FFF76AFC0AE0BB48844207D10121801549
:1039E000FFF762FC0021A015FFF75EFC10BD00226E
:1039F0000288A84B98420ED0AC4B98420BD0B0F145
:103A0000804F08D0A44B984205D0A44B984202D0D6
:103A1000A34B984204D14FF68F731A404B881A4338
:103A2000A04B984207D0A04B984204D04FF6FF43DA
:103A30001A400B891A4302804B68C3620B880385C6
:103A4000944B984202D0994B984201D18B7A0386CD
:103A50000123838270474FF0FF31416000210180D4
:103A600001814180817270470185828270470A46D8
:103A7000002101884FF68F73194011430180704770
:103A800041627047C16270470146486A704701460B
:103A9000088D704721B1028842F00202028004E0E2
:103AA00002884FF6FD731A400280704721B10288E8
:103AB00042F00402028004E002884FF6FB731A40D1
:103AC0000280704721B1028842F08002028004E047
:103AD00002884FF67F731A400280704702884FF6C3
:103AE000F7731A40028002880A43028070470288F6
:103AF0004FF6FF431A40028002880A430280704753
:103B000021B1028842F00102028004E002884FF6EF
:103B1000FE731A400280704770B500240022002313
:103B2000058C4FF6FE7635400584028C8388048B25
:103B30004FF68F752C40B51E2C400D882C43751EFA
:103B40002A408D892A434D882A43524DA84202D0EB
:103B5000564DA84213D14FF6F7752A40CD892A4316
:103B60004FF6FB752A408D882A434FF6FF652B40A0
:103B70004FF6FF552B400D8A2B434D8A2B438380F4
:103B800004838D684563028470BD70B500240022F3
:103B90000023058C4FF6EF7635400584028C838830
:103BA000048B48F6FF752C404FF6FF452C400D88DE
:103BB0004FF6FF7606EA05252C434FF6DF752A40BF
:103BC0008D8906EA05152A434D8806EA05152A431C
:103BD000304DA84202D0354DA8421DD14FF67F7519
:103BE0002A40CD894FF6FF7606EA05152A434FF69F
:103BF000BF752A408D8806EA05152A434FF6FF3522
:103C00002B404FF2FF752B400D8A06EA85052B43AA
:103C10004D8A06EA85052B43838004838D6885637E
:103C2000028470BD70B5002400220023058C4FF67D
:103C3000FF6635400584028C8388848B4FF68F7530
:103C40002C404FF6FC752C400D882C434FF6FF5549
:103C50002A408D894FF6FF7606EA05252A434D88CE
:103C600006EA05252A430B4DA84202D00F4DA84273
:103C700038D14FF2FF752A40CD894FF6FF7606EA1C
:103C800005252A434FF6FF352A408D8806EA05258B
:103C90002A4319E0000001400004004000080040F1
:103CA000000C0040001000400014004000040140DF
:103CB000004001400044014000480140001800401D
:103CC000001C0040002000404EF6FF752B404DF6D2
:103CD000FF752B400D8A06EA05152B434D8A06EA2F
:103CE00005152B43838084838D68C563028470BD72
:103CF00070B5002200230024058C4EF6FF76354077
:103D00000584038C8488828B48F6FF752A404FF621
:103D1000FF452A400D884FF6FF7606EA05252A431F
:103D20004DF6FF752B408D8906EA05352B434D88EE
:103D300006EA05352B43FE4DA84202D0FD4DA842B0
:103D400008D14BF6FF752C400D8A4FF6FF7606EA38
:103D500085152C43848082838D680564038470BD3F
:103D6000002101804180818081608181C181018247
:103D70004182704770B50346002000241846183071
:103D800001258D40ACB21D8CA5431D8409B10829C5
:103D90000AD100EB610005684FF68F76354005606B
:103DA0000568154305600FE00D1FC5F34E05284457
:103DB000056848F6FF763540056005684FF6FF76E2
:103DC00006EA02263543056070BD41637047816392
:103DD0007047C1637047016470470A460021018B38
:103DE0004FF68F7319401143018370470A46002133
:103DF000018B48F6FF7319404FF6FF7303EA022365
:103E00001943018370470A460021818B4FF68F7357
:103E100019401143818370470A460021818B48F67F
:103E2000FF7319404FF6FF7303EA0223194381839E
:103E300070470A460021018B4FF6F7731940114372
:103E4000018370470A460021018B4FF2FF7319402E
:103E50004FF6FF7303EA02231943018370470A46B2
:103E60000021818B4FF6F77319401143818370470E
:103E70000A460021818B4FF2FF7319404FF6FF7302
:103E800003EA02231943818370470A460021018B0C
:103E90004FF6FB7319401143018370470A46002116
:103EA000018B4FF6FF3319404FF6FF7303EA0223ED
:103EB0001943018370470A460021818B4FF6FB733B
:103EC00019401143818370470A460021818B4FF6C8
:103ED000FF3319404FF6FF7303EA0223194381832E
:103EE00070470A460021018B4FF67F73194011433A
:103EF000018370470A460021018BC1F30E014FF682
:103F0000FF7303EA02231943018370470A46002125
:103F1000818B4FF67F7319401143818370470A46A6
:103F20000021818BC1F30E014FF6FF7303EA0223D8
:103F30001943818370470A460021018C4FF6FD73B7
:103F400019401143018470470A460021018C4FF645
:103F5000F77319401143018470470A460021018C10
:103F60004FF6DF7319404FF6FF7303EA021319434C
:103F7000018470470A460021018C4FF67F73194077
:103F80004FF6FF7303EA02131943018470470A4690
:103F90000021018C4FF6FF5319404FF6FF7303EADF
:103FA00002231943018470470A460021018C4FF215
:103FB000FF7319404FF6FF7303EA0223194301848C
:103FC00070470A460021018C4DF6FF7319404FF6E9
:103FD000FF7303EA023319430184704730B50023AD
:103FE00001248C40A3B2048C9C430484048C02FA08
:103FF00001F5ADB22C43048430BD30B50023042458
:104000008C40A3B2048C9C430484048C02FA01F516
:10401000ADB22C43048430BD828B4FF2FF331A4083
:104020008283828B4FF6FF7303EA01231A43828354
:104030007047F0B50C461546002100220026078C7B
:104040004EF6FF7C07EA0C070784818B028C4FF643
:10405000FF7707EA043640F6FF4739404FF6FF770F
:1040600007EA052739434FF6FF7707EA0337394355
:1040700045F6FF773A4046F480573A4381830284FD
:10408000F0BD828B4FF6F3731A408283828B0A4312
:1040900082837047F0B50C461546002100220026A9
:1040A000078C4FF6FF6C07EA0C070784818B028CA4
:1040B0004FF6FF7707EA04264FF60C7739404FF6A4
:1040C000FF7707EA03172F4339434FF2FF573A4070
:1040D00046F480773A4381830284F0BD028B4FF22D
:1040E000FF331A400283028B4FF6FF7303EA01236A
:1040F0001A4302837047F0B50C4615460021002292
:104100000026078C4FF6EF7C07EA0C070784018B2B
:10411000028C4FF6FF7707EA041640F6FF47394056
:104120004FF6FF7707EA033739434FF6FF7703E08F
:10413000000001400004014007EA052739434FF61B
:104140005F773A4046F010073A4301830284F0BD9E
:10415000028B4FF6F3731A400283028B0A430283E9
:104160007047F0B50C46154600210022068C4FF62C
:10417000FE773E400684018B028C4FF60C76314070
:104180007E1C06EA03162E4331434FF6F576324085
:1041900044F00106324301830284F0BD70B5054648
:1041A0000C46208850B92389A28861882846FFF7E9
:1041B000D8FFE1882846FFF7CBFF25E020880428B8
:1041C0000AD12389A28861882846FFF794FFE188F5
:1041D0002846FFF783FF17E0208808280AD12389A3
:1041E000A28861882846FFF755FFE1882846FFF737
:1041F00048FF09E02389A28861882846FFF719FF54
:10420000E1882846FFF708FF70BD0021018041804A
:10421000012181800021C180018170472DE9F04199
:1042200005460C4600260127608808B9022600E0F2
:104230000026A088012801D1022700E0012720885C
:10424000A0B92389A28861882846FFF78AFFE18800
:104250002846FFF77DFF23893A4631462846FFF777
:104260004AFFE1882846FFF739FF13E02389A28837
:1042700061882846FFF73FFFE1882846FFF72EFFB9
:1042800023893A4631462846FFF76BFFE1882846E6
:10429000FFF75EFFBDE8F0810146486B70470146BD
:1042A000886B70470146C86B70470146086C7047C1
:1042B0000A884B881A438B881A43CB881A430B8988
:1042C0001A434B891A438B891A43A0F8442070473C
:1042D0000021018041808180C180018141818181F3
:1042E000704731B1B0F8442042F40042A0F84420B5
:1042F00005E0B0F84420C2F30E02A0F84420704755
:1043000021B1828842F00402828004E082884FF664
:10431000FB731A408280704721B1828842F001020B
:10432000828004E082884FF6FE731A4082807047D4
:104330001AB183890B43838102E083898B43838194
:1043400070478182704702460020138A0B400BB1F0
:10435000012000E000207047CA430282704730B558
:104360000246002000230024158A05EA01039589EE
:1043700005EA010413B10CB1012000E0002030BDBA
:10438000CA430282704741EA0203A0F848307047EE
:104390001AB183890B43838102E083898B43838134
:1043A000704721B1828842F00802828004E082884E
:1043B0004FF6F7731A408280704701894FF6F87202
:1043C0001140018170470A46002101894FF68F7321
:1043D000194011430181704730B504460D46294606
:1043E0002046FFF7F0FF208940F00700208130BD14
:1043F0002DE9F04104460D4616461F46602D06D1B4
:104400003B46012231462046FFF775FE05E03B465C
:10441000012231462046FFF7A4FE29462046FFF739
:10442000D2FF208940F007002081BDE8F08130B53F
:104430000C4600210189C9B24FF6FF7505EA032534
:10444000154325432943018130BD2DE9F04105463F
:104450000E4617469846002443463A4631462846BB
:10446000FFF7E5FF2C894FF6F870044044F007048D
:104470004FF68F70044044F070042C81BDE8F08149
:10448000F0B504460D4616461F463B4632462946C1
:104490002046FFF7CCFF208940F480402081F0BD0A
:1044A00082884FF68F731A40828082880A43828006
:1044B000704702894FF6F8731A40028102890A4355
:1044C0000281704702894FF67F731A400281028988
:1044D0000A4302817047F0B50C4615461E4600217E
:1044E000002200230189028B038C4FF6F8773940B4
:1044F00021434FF6FC473A4040F201173A434FF64A
:10450000DD773B404FF6FF7707EA06172F433B4323
:10451000018102830384F0BD21B1828842F08002D0
:10452000828004E082884FF67F731A408280704751
:10453000A0F850107047000010B50446FA488442B5
:1045400008D101211020FEF7C0FE00211020FEF747
:10455000BCFE57E0F548844209D101214804FEF72A
:10456000A3FE00214FF40030FEF79EFE4AE0F04823
:10457000844209D101218804FEF796FE00214FF400
:104580008020FEF791FE3DE0EA48844209D10121F6
:10459000C804FEF789FE00214FF40020FEF784FED8
:1045A00030E0E548844209D101210805FEF77CFE90
:1045B00000214FF48010FEF777FE23E0DF488442AD
:1045C00008D101212020FEF780FE00212020FEF7E7
:1045D0007CFE17E0DA48844209D101218807FEF702
:1045E00063FE00214FF08040FEF75EFE0AE0D548F2
:1045F000844207D101214005FEF756FE00216005E7
:10460000FEF752FE10BD2DE9FF4705460E46002479
:10461000A14600BFA046B08900B100BF2C8A24F497
:104620004054F08804432C82AC8941F20C608443EE
:10463000B08831890843718908430443AC81AC8A4E
:1046400024F44074B0890443AC826846FEF7BDFC94
:10465000B548854202D0B948854202D1DDF80C90B8
:1046600001E0DDF80890A88900F4004040B109EBB2
:10467000C90000EB091031684900B0FBF1F707E011
:1046800009EBC90000EB091031688900B0FBF1F7B4
:104690006420B7FBF0F004012009642101FB1078CD
:1046A000A88900F4004040B1322000EBC800B0FB04
:1046B000F1F000F00700044308E0322000EB08109E
:1046C0006421B0FBF1F000F00F0004432C81BDE841
:1046D000FF874FF41651016000218180C180018164
:1046E0000C21418100218181704710B502460020D4
:1046F000108A20F470600B884C8823438C882343F5
:10470000CC8823431843108210BD002101804180D2
:104710008180C180704721B1828942F40052828138
:1047200004E082894DF6FF731A4082817047028B44
:1047300002F47F420283028B0A430283704721B155
:10474000828942F40042828103E08289C2F30E0230
:104750008281704721B1828A42F40062828204E041
:10476000828A4FF2FF731A4082827047C1F30802B7
:104770008280704701468888C0F308007047028A2B
:104780004FF6F0731A400282028A0A43028270478F
:1047900021B1828942F00202828104E082894FF6CF
:1047A000FD731A408281704782894FF2FF731A406D
:1047B000828182890A4382817047028A4FF6DF73C1
:1047C0001A400282028A0A430282704721B1028A99
:1047D00042F48042028204E0028A4BF6FF731A40E0
:1047E00002827047818941F001018181704721B1C6
:1047F000828A42F00802828204E0828A4FF6F773CE
:104800001A4082827047028BD2B20283028B42EA44
:1048100001220283704721B1828A42F02002828203
:1048200004E0828A4FF6DF731A408282704721B11A
:10483000828A42F01002828204E0828A4FF6EF738D
:104840001A4082827047828A4FF6FB731A40828236
:10485000828A0A438282704721B1828A42F0020230
:10486000828204E0828A4FF6FD731A40828270478A
:104870001AB1838A0B43838202E0838A8B4383824B
:104880007047F0B50346002400260025002040F6BE
:104890006A17B94200D100BF1846C1F3421401F0B3
:1048A0001F06012707FA06F5012C01D10C3004E0A0
:1048B000022C01D1103000E014301AB107682F43E8
:1048C000076002E00768AF430760F0BD02460020C2
:1048D000B1F5007F00D100BF13880B400BB1012060
:1048E00000E00020704701F40072B2F5007F00D1B3
:1048F00000BFCA430280704770B5024600240023FF
:104900000025002040F66A16B14200D100BFC1F375
:10491000421501F01F03012606FA03F3012D13D1FE
:104920009689334017E00000001001400044004029
:1049300000480040004C004000500040001401407E
:1049400000780040007C0040022D02D1168A3340DE
:1049500001E0968A33400C12012606FA04F4168808
:10496000344013B10CB1012000E0002070BD10B53F
:104970000022002340F66A14A14200D100BF0A12AF
:1049800001249440A3B2DC43048010BD1CB50C4646
:10499000064B7B4469460090204600F004FC044628
:1049A0000020694600F012FC20461CBD37080000BC
:1049B0000FB41CB5084B06AA7B44694600900598C5
:1049C00000F0F1FB04460020694600F0FFFB2046A2
:1049D0001CBC5DF814FB0000110800002DE9F0413B
:1049E0000646002410687529314616A510D000F03F
:1049F0001FF9002802DA404213A507E031688A0750
:104A000001D512A502E0490704D511A5012401E052
:104A100000F017F900210A2206F1240709E0B0FB93
:104A2000F2FCB0FBF2F302FB1C0030307854184665
:104A3000491C0028F3D123462A463046BDE8F04100
:104A400000F031B9000000002D0000002B00000034
:104A5000200000002DE9F05F894604464FF0000A6F
:104A6000DFF874B1FB44C0F820A02046E168884715
:104A7000002874D0252806D0D4E901219047206A67
:104A8000401C2062F1E700265F462046E168884727
:104A90002028054607DB312D05D2781910F8200CA7
:104AA00008B10643F1E7B00701D526F00406C4F8C3
:104AB0001CA00027C4F818A02A2D09D0284601F010
:104AC000C1FB38B304EB8708303DC8F8185019E033
:104AD00059F8041B204604EB87029161E16888477E
:104AE000012F054618D1E069002820DA26F02006BB
:104AF0001DE0D8F8180000EB800005EB40003038CE
:104B0000C8F818002046E1688847054601F09AFB7E
:104B10000028EED1012F0AD02E2D08D12046E168C1
:104B200088477F1C0546022F46F02006C4DBA0699B
:104B3000002803DA404246F00106A061F00701D0E8
:104B400026F010066C2D0BD0682D09D04C2D39D0D5
:104B50006A2D35D0742D35D07A2D33D016E038E05B
:104B6000E1682F4620468847B842054609D16C2F98
:104B700026D04FF48060E16806432046884705460A
:104B800004E06C2F1AD04FF4807006430DB3A5F1EA
:104B90004100192802D8203546F400664A462946C5
:104BA000204626604E46FBF749FB80B101280BD01A
:104BB000F61D26F0070000F1080956E74020E4E75B
:104BC0008020D8E70020D6E706F104094DE7284603
:104BD00052E7206ABDE8F09F681A000070477047EE
:104BE000704770B5044685690068C10601D5302656
:104BF00000E02026C00707D070BDD4E9012130466F
:104C00009047206A401C20626D1EF6D570BD70B5BD
:104C1000044685690078C00707D170BDD4E9012139
:104C200020209047206A401C20626D1EF6D570BD82
:104C300009684A0501D540B27047C905FCD500B2E4
:104C4000704709684A0501D5C0B27047C905FCD54F
:104C500080B2704770B50C460546012A05D0287809
:104C6000800600D5EA69002302E0012305E05B1C11
:104C7000934202D2E05C0028F9D1A869E618C01A74
:104C8000A861286A184428622846FFF7AAFF04E0B2
:104C9000D5E9012114F8010B9047B442F8D3284616
:104CA000FFF7B5FF70BD2DE9F0470D4699469246D6
:104CB000044600F124080168880604D5E06921F063
:104CC0001001216000E00120A84201DD471B00E047
:104CD0000027A1697A1902EB0900081AA06120785F
:104CE000C00602D42046FFF77CFF002608E0D4E986
:104CF00001211AF806009047206A401C761C2062A9
:104D00004E45F4DB2078C0060AD52046FFF769FF40
:104D100006E0D4E9012130209047206A401C20623F
:104D2000381EA7F10107F4DC07E0D4E9012118F8E7
:104D300005009047206A401C2062281EA5F101054D
:104D4000F3DC2046FFF763FF2078000602D502203F
:104D5000BDE8F0870120FBE711680268006A53058F
:104D600001D508700AE0D30501D5088006E01306D6
:104D700003D5C217C1E9000200E0086001207047B6
:104D800070472DE9FF4F0C461E464FF0FF378BB0A2
:104D9000D2E90001DDF860800A908A46C1F30A5525
:104DA00005B93D46002108464FF00000BAF1000F5A
:104DB00000F4400005DA00EB80004FF4400101EA06
:104DC00050004FEA9059B9F1010F00DDB9460A9839
:104DD00050EA4A000ED044F61050A5F2FF35454384
:104DE0002F14B8F1000F1ED07542291E1EDDC9F127
:104DF00000021CE0B8F1010F4FF0000001D030219B
:104E000003E0F24305E02154401CB042FBDB304696
:104E10000022002121540B99C1F80880C1E900202B
:104E20000FB0BDE8F08FBD1B6D1CDEE74A4600DA0F
:104E3000694206A800F022FD06AB93E8070003AB29
:104E400083E8070050460A9900F029FE8DE8070024
:104E5000A0F500501F3800900398002D09DD42F2A4
:104E60001F014A46084403A90390684601F088F8E8
:104E700008E0A0F500504A461F3803A90390684691
:104E800001F092F88DE807000004000C03D04FF009
:104E9000FF30410800E01046B8F1000F03D00022B7
:104EA000009215461EE0751E05D400F0B7FA3032A8
:104EB00062556D1EF9D5B3460122084302D0002287
:104EC0007F1C04E02078302801D100227F1E002AB8
:104ED000099786D01DE0112D07DA00F09FFA3032D5
:104EE00062556D1C50EA0102F5D1084302D00098CA
:104EF000C8B10EE00021681E05E0235C625C6354CB
:104F00002254401E491C8142F7DBAB46A81B401EC1
:104F10000990002004F80B000B98099AC0F808804B
:104F2000C0E9002B7CE711264FF0000859E72DE976
:104F3000F04F88460446D21D22F0070191B0D1E916
:104F40000001CDE90A0101F065F902460B98C00F96
:104F500001D02D2007E02068810701D52B2002E039
:104F6000202101EAC000032A099001D0072A05DBAD
:104F700003464146204600F015FC0BE120788006F0
:104F800001D5E06900E00620B8F1650F814606D042
:104F9000B8F1660F18D0B8F1670F70D131E000207A
:104FA000B9F1110F009001DB112301E009F10103B8
:104FB0000AAA01A90CA8FFF7E4FEDDE90C7000269F
:104FC00009F10105834647E001204B4600904FF070
:104FD00000470AAA01A90CA8FFF7D3FEDDE90DB02E
:104FE0000C995D46002610B909F101000D18B9EBC6
:104FF000050003D4C0F1FF3609F10105A5EB090056
:105000002BE0B9F1010F01DA4FF001090020B9F1ED
:10501000110F0090484601DD112300E003460AAA63
:1050200001A90CA8FFF7ADFEDDE90C704D46002686
:105030008346207800070AD4AB4500DA5D4601A814
:10504000012D04DD411911F8011C302907D04F450D
:1050500002DA17F1040F04DA012082460FE06D1E18
:10506000EEE7002F02DCED1B3E4403E0781CA84273
:1050700000DD7D1CB81B00F1010A4FF000472078CD
:10508000000703D4AA4501DB4FF0FF3A0021B7F136
:10509000004F0DF143088DF8431024D002202B233C
:1050A000002F01DA7F422D230A21021EA0F1010008
:1050B00000DC5FB197FBF1FC97FBF1F201FB1C7C7C
:1050C00017460CF1300C08F801CDEEE7A8F101000D
:1050D00003702188090501D5452100E06521A0F173
:1050E000010800F8011C09980FA9A1EB0807FF1D92
:1050F00000B10120411901EBEA70A1693844081A96
:10510000401EA0612078C00602D42046FFF769FD4A
:10511000099828B1D4E901219047206A401C2062F7
:105120002078C00622D52046FFF75BFD1EE0002E4A
:1051300004DBB34502DD01A8805D00E03020D4E946
:1051400001219047206A401C2062761CAAF10100D0
:105150005FEA000A0AD100F05DF9C0680168405CAE
:10516000D4E901219047206A401C2062281EA5F145
:105170000105DCDC07E0D4E9012118F8010B9047B8
:10518000206A401C2062381EA7F10107F3DC20468C
:10519000FFF73DFD032011B043E6000001694A1C02
:1051A00002610878704700B58FB0CDE90131002168
:1051B000059105497944CDE9031011466846FFF78A
:1051C00049FC0FB000BD0000E5FFFFFF0A6802F8D0
:1051D000010B0A60704700002DE9FF5F15468A4603
:1051E0000446DFF8AC80F8440027D8E900103E46BA
:1051F000CDE9001010E03AF816106A4602A800F057
:10520000ABFB411C07D02178890603D5E269391828
:1052100091420DD80744761C2078800602D5E069BB
:10522000B84205DDAE42E6DB3AF816000028E2D1CE
:10523000A069C01BA0612046FFF7D3FCD8E900108D
:10524000CDE90010002017E03AF818106A4602A8CD
:1052500000F082FBB0F1FF3F81460BD000250DF13D
:10526000080B05E0D4E901211BF8050090476D1CEF
:105270004D45F7D308F10100B0428046E4DB206AD7
:10528000384420622046FFF7C2FCBDE8FF9F0000C3
:10529000FA1200002DE9F0418046D21D22F00702EB
:1052A0000025D2E90002F52915A614D0011E72F1DD
:1052B000000106DA0023D0EB030063EB020211A623
:1052C00008E0D8F800108B0701D50FA602E04907C7
:1052D00001D50EA601251146002408F1240704E09B
:1052E00000F09CF830323A55641C50EA0102F7D1C4
:1052F0002B46324621464046BDE8F041FFF7D3BC7D
:10530000000000002D0000002B0000002000000025
:1053100030B4002100F1240408E002F00705D208AF
:10532000303542EA4372DB086554491C52EA0305F2
:10533000F3D10468002310A2250707D5A40600D4E2
:1053400021B1C46901230DA2641EC46130BCFFF702
:10535000AABC10B5044621461068FFF772FC02464D
:105360002046BDE810400023D2E7D21D22F00701FD
:10537000D1E90023CCE7000000000000300000006D
:10538000F0B40D460188090502D5214C7C4402E0A9
:105390001F4C7C440E34002100F1240608E002F08A
:1053A0000F071209E75D42EA03721B097754491C93
:1053B00052EA0307F3D102780023120704D5702DB7
:1053C00006D009B1022311342246F0BCFFF76BBCB2
:1053D00001231034F8E770B504460D4621461068E5
:1053E000FFF72FFC024629462046BDE87040002307
:1053F000C6E7D21D22F00703D3E90023C0E7036804
:10540000126843F0200303600823C3610023B7E759
:105410005C11000000487047D80E002030B5B0F194
:105420000A024FEA900E71F100034EEA817EB0EB62
:105430000E0061EB91014FEA101E4EEA017E10EB67
:105440000E0041EB11114FEA102E4EEA016E10EBE7
:105450000E0041EB11214FEA104E4EEA014E10EBC7
:105460000E0041EB1141401841F100014FEAD0001C
:1054700040EA41704FEAD10110EB80054FEA810408
:1054800044EA907444EB01046D1944EB0404521B8C
:10549000A3414FF0000348BF0A3200D530BD401C85
:1054A00041F1000130BD00002DE9F04F04460D46EA
:1054B000D21D22F0070089B0D0E90097484639464E
:1054C00000F0A8FE0246F80F01D02D2307E0206867
:1054D000810701D52B2302E0202101EAC0038DF8CA
:1054E00020300BB1012000E00020032A824601D0C9
:1054F000072A04DB2946204600F054F93FE12078D2
:10550000800601D40D2500E0E569C7F30A560D2D8C
:1055100049DA00214FEA175B08464FF00000002FE0
:1055200000F4400007DA00EB80004FF4400100EB8C
:10553000D07001EA60008115012901DD4FF0FF31D3
:1055400000224FEA850CBCF1180F06D31346ACF1CC
:1055500018004FF08052C24003E04FF4801323FA4A
:105560000CF30CF10C0CBCF1200F04D3ACF1200CAB
:1055700009FA0CF001E007FA0CF000294FF000489E
:1055800001DD18B90FE00ED140450CD319EB02092B
:105590005F4121B9404502D19F4329EA0209BBEB93
:1055A000175F00D0761C2088000502D57B48784420
:1055B00002E07A487844193808AA302302F80A3001
:1055C000037C0AF10101002E0AF1020A53546A46D3
:1055D00002DC4FF0300101E04FF031014FF00108E3
:1055E0008DF8001002D0A6F2FF3603E059EA470119
:1055F00000D06B4E002D02DC2178090704D54FF056
:1056000002082E218DF80110C44600210BE0C7F3DB
:1056100003433F01C35C491C6D1E02F80830052995
:1056200008F1010801DA002DF1DC00210CE000EBAB
:105630001973491C1B786D1E082902F808304FEABF
:10564000091908F1010801DA002DF0DC21688B0648
:1056500002D516E0A8F10108E04505DD02EB0803DC
:1056600013F8013C302BF5D0B8F1000F09DD02EB47
:10567000080313F8013C2E2B03D1090701D4A8F12C
:105680000108002D05DD3E2102F808106D1E08F10D
:105690000108407C002E02F8080008F1010804DA35
:1056A0002D20764202F8080002E02B2002F80800C4
:1056B0000A214FF47A70864208F101080BDB96FB51
:1056C000F0F3303302F8083096FBF0F308F10108EC
:1056D00000FB136601E0642E0CDB642096FBF0F304
:1056E000303302F8083096FBF0F308F1010800FBB4
:1056F000136601E00A2E06DB96FBF1F0303002F86B
:10570000080008F1010896FBF1F001FB1060303051
:1057100002F80800A16908F1010808EB050202EB94
:105720000A00081AA0612078C00602D42046FFF7BC
:1057300058FA216A08AE01EB0A00206204E0D4E9BD
:10574000012116F8010B9047BAF1010AF7D220782F
:10575000C00602D52046FFF744FA6E4609E016F867
:10576000010B3E280FD0D4E901219047206A401C4C
:105770002062B8F10108F2D22046FFF748FA09B0DA
:105780000320BDE8F08F206A2844206203E0D4E9BA
:105790000121302090476D1EEBD3F8E7750F000014
:1057A00002FCFFFF2DE9F0411F4604460326016875
:1057B000072A01F4006004DB08B116A505E016A570
:1057C00003E008B115A500E015A521F01000206048
:1057D000A069C01EA0610FB1401EA0612046FFF766
:1057E00000FA4FB1D4E9012138469047206A401CA5
:1057F0002062C01C206206E0206AFAE7D4E9012199
:1058000015F8010B9047761EF8D22046FFF7FFF9F6
:10581000BDE8F0814E414E006E616E00494E46007B
:10582000696E660010B5436913B1AFF3008001E003
:10583000FFF710FA012010BD127800F124010A7060
:1058400000224A700122EDE711684FF0FF32E9E7CC
:1058500010B5436913B1AFF3008001E0FFF7BCFC62
:10586000012010BD128800F1240182840022C2842C
:105870000122EDE711684FF0FF32E9E72DE9F0472B
:10588000814616468AB0334878440DC88DE80D002D
:1058900030487844801C03AC0DC884E80D0041F604
:1058A0009B300844372190FBF1F290FBF1F5A5F114
:1058B000800501FB12041B3C02D56442012000E07C
:1058C0000020DFF890A080460027FA44AAF1BE0A23
:1058D0000DE0E00709D03246684607EB47010AEBC6
:1058E000810100F061FB8DE8070064107F1C002C33
:1058F000EFD1184F7F44AC3F18E0E80714D007EB16
:1059000004100DF1180A90E80E008AE80E00C06835
:10591000F04201D198190890324606A903A800F078
:1059200043FB03AB83E807006D10641C002DE4D13A
:1059300032466946B8F1000F03A802D000F020FB00
:1059400001E000F031FBC9E90001C9F808200AB004
:10595000BDE8F0872C0D000070B516460C460546D4
:1059600000F044F8036893F80101012806D0FF2CE9
:105970000FD8185D68B101202C7070BDD3F80701F5
:105980003246214603F2071303442846BDE870401F
:1059900018474FF0FF3070BD00487047B80E002028
:1059A0007546FFF7F9FFAE4605006946534620F0FD
:1059B0000700854618B020B5FCF7D6FDBDE82040AD
:1059C0004FF000064FF000074FF000084FF0000BBB
:1059D00021F00701AC46ACE8C009ACE8C009ACE86E
:1059E000C009ACE8C0098D467047000010B5FFF74C
:1059F00011FD001D10BD00BF8908000010B5044650
:105A0000AFF300802046BDE81040FAF77CBC0000F0
:105A10004FF0013C50F8042B51F8043B9A4221D13D
:105A2000A2EB0C03934313EACC1317D150F8042BC9
:105A300051F8043B9A4215D1A2EB0C03934313EAAD
:105A4000CC130BD150F8042B51F8043B9A4209D1E6
:105A5000A2EB0C03934313EACC13DBD04FF000000E
:105A6000704700BFD01A01BAB1FA81F101F01801F4
:105A700022FA01F0CB40C1F12001DBB2C0B2C01A62
:105A80002CFA01F3D11A914311EAC311E6D1704700
:105A900001491820ABBEFEE72600020070475FEA0E
:105AA000400C08BF91F0000F4FEA8C234FEAC1224F
:105AB00043EA51514FEA1C5018BF00F5F0404FEA3D
:105AC000300018BF41F000415FEA6C5C00F02980B3
:105AD000BCF1FF3F08BF40F080407047130C06BF89
